:020000040000FA
:100000007DEF05F0F76A140FF66E000EF722090077
:10001000F550120054656D70657261747572613AC5
:1000200020252E316C66432020200000F76A3C0F0B
:10003000F66E000EF7220900F5501200486F72614B
:100040003A20253032643A253032643A2530326421
:100050000000080E016E050E006E002EFED78B9676
:100060009496060E006E002EFED71A368B98D8B0E6
:100070009488D8A09498948682A6FED7012EEBD7B8
:10008000050E006E002EFED78B9694960000948885
:10009000060E006E002EFED7060E006E002EFED756
:1000A000948682A6FED7016A060E006E002EFED749
:1000B00082B801808B9694968B989498000C080EC9
:1000C000166E00C017F09488060E006E002EFED744
:1000D000948682A6FED782B8D88082A8D8900136AE
:1000E000050E006E002EFED794968B96162EEBD73B
:1000F0009488060E006E002EFED78B981750D8A459
:1001000094980000948682A6FED7050E006E002EFD
:10011000FED78B969496060E006E002EFED78B9817
:100120009498000C17C018F0D8901832780E181652
:100130001830006E00323F0E001600501824196E61
:1001400017500F0B1924016E000C19C01AF01B6A0E
:100150001A50090805E20A0E1A5E100E1B2603D07B
:100160001A501B2601D0F4D71BC001F0000C126AF4
:100170009488050E006E002EFED79486060E006E43
:10018000002EFED78B989498050E006E002EFED799
:100190008B969496D00E1A6E5CDF1A6A5ADF94889A
:1001A000050E006E002EFED79486060E006E002E01
:1001B000FED782A6FED78B989498050E006E002E6F
:1001C000FED78B969496D10E1A6E43DF006A77DFC6
:1001D00001C013F001C017F0A5DF01C012F0949820
:1001E0000000948682A6FED7050E006E002EFED774
:1001F00000D000009488050E006E002EFED7129EDF
:10020000040E006E002EFED700D09488050E006EFE
:10021000002EFED79486060E006E002EFED78B9819
:100220009498050E006E002EFED78B969496D00EF5
:100230001A6E0FDF1A6A0DDF12C019F086DF01C0D7
:1002400013F001C01AF005DF9488050E006E002E31
:10025000FED79486060E006E002EFED782A6FED72D
:100260008B989498050E006E002EFED78B96949670
:10027000D00E1A6EEEDE070E1A6EEBDE800E1A6ED0
:10028000E8DE94980000948682A6FED7050E006EE4
:10029000002EFED700D000009488050E006E002EC0
:1002A000FED787EF05F0189E3F0E16169488050EB0
:1002B000006E002EFED79486060E006E002EFED72E
:1002C0008B989498050E006E002EFED78B96949610
:1002D000D00E1A6EBEDE1A6ABCDE18C019F035DF09
:1002E00001C019F001C01AF0B4DE17C019F02DDFFB
:1002F00001C019F001C01AF0ACDE16C019F025DFFC
:1003000001C019F001C01AF0A4DE15C019F01DDFFC
:1003100001C019F001C01AF09CDE12C019F015DFFF
:1003200001C019F001C01AF094DE13C019F00DDFFE
:1003300001C019F001C01AF08CDE14C019F005DFFD
:1003400001C019F001C01AF084DE800E1A6E81DE41
:1003500094980000948682A6FED7050E006E002EAB
:10036000FED700D000009488050E006E002EFED748
:1003700097EF05F0EA6A130EE96EEF500DE0060EF6
:10038000016E006A002EFED7012EFBD77B0E006E99
:10039000002EFED7EF2EF3D7000C030E125E09E3FA
:1003A000EA6A120EE96EEF5004E001D000D0EF2EA1
:1003B000FDD7000C212C20D02250F00B0209236E17
:1003C00023C081FF8180080E006E002EFED7819031
:1003D0002238006EF00E001600500209236E23C072
:1003E00081FF8180080E006E002EFED78190530E93
:1003F000006E002EFED71BD02250F00B236E23C0C0
:1004000081FF8180080E006E002EFED78190223879
:10041000236EF00E231623C081FF8180080E006E2C
:10042000002EFED78190530E006E002EFED7000CDA
:10043000936A320E136E9EDF300E816E8180080E3D
:10044000006E002EFED78190190E136E93DF300ED2
:10045000816E8180080E006E002EFED78190190EED
:10046000136E88DF300E816E8180080E006E002EC4
:10047000FED78190190E136E7DDF300E816E818064
:10048000080E006E002EFED78190C80E126E85DF1A
:10049000200E816E8180080E006E002EFED78190A6
:1004A000C80E126E7ADF216A280E226E83DF216A5F
:1004B000080E226E7FDF216A010E226E7BDF050EA1
:1004C000136E58DF216A060E226E74DF216A0C0E4D
:1004D000226E70DFAFEF05F08E0E006E13C001F0DC
:1004E00012C002F0036A015209E102C001F0026A7F
:1004F000080E005E015202E1006A08D0D89001BEE9
:1005000004D0023601360006F9D7019EBBEF05F094
:10051000010E216E20C022F04DDF000C2050D8B417
:1005200071D0006E2450D8B46DD0002604E3810E43
:10053000002668E204D07F0E005E64E363E021C021
:1005400028F02550281A218E258E23502702F4CF1B
:100550002AF022502602F4CF03F0F3CF29F027022D
:10056000F3502A26F4502922000E0322235026029B
:10057000F3502A26F4502922000E026A0322022296
:1005800021502702F3502926F4500322000E0222A4
:1005900021502602F3500326F4500222000E016A75
:1005A000012223502502F3502926F4500322000E85
:1005B0000222012222502502F3500326F450022287
:1005C000000E012221502502F3500226F450012290
:1005D000002A01BE05D02936033602360136000650
:1005E000000E29AE0AD0032A02220122015005E1A1
:1005F000025003E1035001E1002A28BE018E28AE1B
:10060000019E04D0006A016A026A036A79EF03F06E
:100610002050B608206E036A21C024F0218ED890A5
:100620002132223223320332023201320032202EB2
:10063000F6D724AE0BD0001E011E021E031E002A98
:10064000D8B4012AD8B4022AD8B4032A8CEF03F014
:10065000006A016A026A036A286A296A2A6A2B6A9E
:1006600027502610251024102CE0200E2C6ED89038
:100670002036213622362336283629362A362B369E
:1006800027502B5C08E126502A5C05E12550295CA7
:1006900002E12450285C0FE32450285E2550D8A0A6
:1006A000253C295E2650D8A0263C2A5E2750D8A09B
:1006B000273C2B5ED88000360136023603362C2EBE
:1006C000D6D7EA6A280EE96E000CE950186E17506A
:1006D0001A6E19E016C023F015C022F014C021F0E4
:1006E00013C020F0276A266A200E256E820E246E23
:1006F00015D703C016F002C015F001C014F000C0F9
:1007000013F01A2EE7D716C023F015C022F014C03C
:1007100021F013C020F07CD703C016F002C015F002
:1007200001C014F000C013F016AE0DD01806188AE0
:10073000131E141E151E161E132AD8B4142AD8B45C
:10074000152AD8B4162A3B0E1F6E9A0E1E6ECA0EBC
:100750001D6E1C6A0A0E1A6E1750D8B4182A16C0DD
:1007600023F015C022F014C021F013C020F01FC0E8
:1007700027F01EC026F01DC025F01CC024F068DF45
:100780000150EFCF13F0ECCF14F0ECCF15F0ECCF1D
:1007900016F000520FE117281A5C0CE018500CE01C
:1007A0000F0B1A5C01E037E218BE35D018BC04D03C
:1007B000200E2DD0200E181618AA0CD0189A1750FB
:1007C000D8A418060050186E2D0E206EA1DE185009
:1007D000006E186A17501A5C0AE10050186E2E0E4F
:1007E000206E96DE1850006E200E1816000E300E89
:1007F00018AA0DD0189A1750D8A418060050186ED1
:100800002D0E206E85DE1850006E186A300E002600
:1008100000C020F07DDE1FC023F01EC022F01DC0EE
:1008200021F01CC020F0276A266A256A0A0E246E71
:100830000FDF03C01FF002C01EF001C01DF000C09A
:100840001CF01A2E8CD7DFEF05F0F29CF29EF2BE60
:10085000FDD79488050E006E002EFED79486060EF6
:10086000006E002EFED78B989498050E006E002E19
:10087000FED78B969496D00E1A6E29EC00F012C01B
:100880001AF029EC00F09488050E006E002EFED7B9
:100890009486060E006E002EFED782A6FED78B9899
:1008A0009498050E006E002EFED78B969496D10E6E
:1008B0001A6E29EC00F0006A02DC01C013F0949873
:1008C0000000948682A6FED7050E006E002EFED78D
:1008D00000D000009488050E006E002EFED7C00EDA
:1008E000F21213C001F053EF05F01A50016A195CBF
:1008F00003E219C000F00CD0006A080E1B6E193616
:1009000000361A50005CD8B0006E01361B2EF7D7A7
:10091000000C200E14A8300E156E13C000F013AE9C
:1009200007D0001E002A00C013F02D0E156E148E85
:10093000015013C019F0640E1A6ED7DF00C013F017
:10094000300E0124166E13C019F00A0E1A6ECDDF98
:10095000300E0024186E300E0124176E15C000F002
:1009600014A602D014AE149414B80BD014AE22D036
:1009700014B420D000C016F014B21CD000C017F080
:1009800019D0300E165C16E100C016F0200E156E60
:1009900014A604D01494148214AE1492300E175C72
:1009A00009E100C017F0200E166E14A6F7D71492B6
:1009B00014AE149014A403D015C020F0A9DD14A225
:1009C00003D016C020F0A4DD14A003D017C020F07F
:1009D0009FDD18C020F09CDD000C9488050E006E91
:1009E000002EFED79486060E006E002EFED78B9842
:1009F0009498050E006E002EFED78B969496D00E1E
:100A00001A6E29EC00F01A6A29EC00F09488050EA1
:100A1000006E002EFED79486060E006E002EFED7C6
:100A200082A6FED78B989498050E006E002EFED7F6
:100A30008B969496D10E1A6E29EC00F0010E006E82
:100A40005FEC00F001507F0B136E176E92EC00F01C
:100A500001C005F0010E006E5FEC00F001507F0B4D
:100A6000136E176E92EC00F001C006F0006A5FECA6
:100A700000F001503F0B136E176E92EC00F001C0B6
:100A800007F094980000948682A6FED7050E006EAB
:100A9000002EFED700D000009488050E006E002EB8
:100AA000FED7126AD2D601C005F005C017F092EC4D
:100AB00000F001C005F0126A125016EC00F0122A84
:100AC000006E206E25DD060E125CF6E107C013F005
:100AD000010E146E1EDF3A0E206E1ADD06C013F0F2
:100AE000010E146E16DF3A0E206E12DD05C013F0F3
:100AF000010E146E0EDFF1EF05F0F86AD09EEA6A7F
:100B0000E96AC180C182C184C196B7EF00F0120EBC
:100B1000126E0B0E136E0C0E146E020E156E160E68
:100B2000166E050E176E370E186E53EF01F0C19C4E
:100B3000C28CC28EC18EC280000E016EC250C70B25
:100B40000110C26E100E006E002EFED70000020EC5
:100B5000126EFA0E136E0EDC122EFBD769D4C2840D
:100B6000C2B4FED7C3CF0CF0C4CF0DF00DC013F04C
:100B70000CC012F0B1D403C011F002C010F001C0DB
:100B80000FF000C00EF0216A800E226E13DC126A94
:100B9000125002EC00F0122A006E206EB9DC0D0E2D
:100BA000125CF6E1890EE96E11C016F010C015F066
:100BB0000FC014F00EC013F0010E176E86D5120E82
:100BC000136E135002EC00F0132A006E206EA0DCAE
:100BD000160E135CF6E1216AC00E226EDAEC01F00B
:100BE000FCD692988978020E126EFA0E136EBAEC49
:0A0BF00001F0122EFAD7B3D703006C
:020000040030CA
:0E00000000220E0E000181000FC00FE00F4025
:00000001FF
;PIC18F452
