:020000040000FA
:1000000047EF0AF0F76A140FF66E000EF7220900A8
:10001000F55012004144433A20256C6420202020F2
:100020000000F76A320FF66E000EF7220900F55055
:10003000120054656D70657261747572613A2025A5
:100040002E316C66432020202000F76A5A0FF66E8E
:10005000000EF7220900F5501200486F72613A2035
:10006000253032643A253032643A2530326420201B
:1000700020202000F76A840FF66E000EF722090098
:10008000F5501200436F6E6669672052656C6F67AA
:10009000696F202020200000F76AA80FF66E000E7E
:1000A000F7220900F550120048253032643A253015
:1000B00032643A253032642044253032642F2530B2
:1000C00032642F253032642020202000F76ADC0FB4
:1000D000F66E000EF7220900F5501200486F7261AB
:1000E000733A253032642020202020202020202038
:1000F00020200000F76A040FF66E010EF7220900B7
:10010000F55012004D696E75746F733A2530326484
:1001100020202020202020202000F76A2A0FF66EC1
:10012000010EF7220900F5501200536567756E64E1
:100130006F733A2530326420202020202020202098
:1001400020202000F76A540FF66E010EF7220900F6
:10015000F55012004469613A253032642020202095
:1001600020202020202020200000F76A7A0FF66E41
:10017000010EF7220900F55012004D65733A253043
:100180003264202020202020202020202020000059
:10019000F76AA00FF66E010EF7220900F550120063
:1001A000416E6F3A2530326420202020202020200C
:1001B000202020200000F76AC60FF66E010EF722FD
:1001C0000900F550120053616C7661723F202B20BC
:1001D00053494D2C202D204E414F0000F76AEC0F63
:1001E000F66E010EF7220900F5501200436F6E669D
:1001F00069672054656D7065726174757261202045
:1002000020200000F76A140FF66E020EF722090094
:10021000F550120054656D70204D61783A202530FC
:100220003264202020202020202020202020200098
:10023000080E016E050E006E002EFED78B9694966A
:10024000060E006E002EFED71C368B98D8B0948810
:10025000D8A09498948682A6FED7012EEBD7050EDF
:10026000006E002EFED78B96949600009488060EA2
:10027000006E002EFED7060E006E002EFED794866E
:1002800082A6FED7016A060E006E002EFED782B847
:1002900001808B9694968B989498000C080E196E9A
:1002A00000C01AF09488060E006E002EFED79486C9
:1002B00082A6FED782B8D88082A8D8900136050ED3
:1002C000006E002EFED794968B96192EEBD794884D
:1002D000060E006E002EFED78B981A50D8A4949864
:1002E0000000948682A6FED7050E006E002EFED773
:1002F0008B969496060E006E002EFED78B989498DF
:10030000000C1AC01BF0D8901B32780E1B161B3045
:10031000006E00323F0E001600501B241C6E1A5057
:100320000F0B1C24016E000C1BC01CF01D6A1C501E
:10033000090805E20A0E1C5E100E1D2603D01C5093
:100340001D2601D0F4D71DC001F0000C146A94885A
:10035000050E006E002EFED79486060E006E002E4F
:10036000FED78B989498050E006E002EFED78B96C4
:100370009496D00E1C6E5CDF1C6A5ADF9488050EC2
:10038000006E002EFED79486060E006E002EFED75D
:1003900082A6FED78B989498050E006E002EFED78D
:1003A0008B969496D10E1C6E43DF006A77DF01C0F6
:1003B00015F001C01AF0A5DF01C014F094980000F8
:1003C000948682A6FED7050E006E002EFED700D0C2
:1003D00000009488050E006E002EFED7149E040EB9
:1003E000006E002EFED700D09488050E006E002E01
:1003F000FED79486060E006E002EFED78B9894983A
:10040000050E006E002EFED78B969496D00E1C6EB5
:100410000FDF1C6A0DDF14C01BF086DF01C015F072
:1004200001C01CF005DF9488050E006E002EFED77B
:100430009486060E006E002EFED782A6FED78B98FD
:100440009498050E006E002EFED78B969496D00ED3
:100450001C6EEEDE070E1C6EEBDE800E1C6EE8DE00
:1004600094980000948682A6FED7050E006E002E9A
:10047000FED700D000009488050E006E002EFED737
:1004800054EF0AF0EA6A140EE96EEF500DE0060E22
:10049000016E006A002EFED7012EFBD77B0E006E88
:1004A000002EFED7EF2EF3D7000C030E145E09E3E7
:1004B000EA6A140EE96EEF5004E001D000D0EF2E8E
:1004C000FDD7000C232C20D02450F00B0209256E00
:1004D00025C081FF8180080E006E002EFED781901E
:1004E0002438006EF00E001600500209256E25C05B
:1004F00081FF8180080E006E002EFED78190530E82
:10050000006E002EFED71BD02450F00B256E25C0A8
:1005100081FF8180080E006E002EFED78190243866
:10052000256EF00E251625C081FF8180080E006E15
:10053000002EFED78190530E006E002EFED7000CC9
:10054000936A320E146E9EDF300E816E8180080E2B
:10055000006E002EFED78190190E146E93DF300EC0
:10056000816E8180080E006E002EFED78190190EDC
:10057000146E88DF300E816E8180080E006E002EB2
:10058000FED78190190E146E7DDF300E816E818052
:10059000080E006E002EFED78190C80E146E85DF07
:1005A000200E816E8180080E006E002EFED7819095
:1005B000C80E146E7ADF236A280E246E83DF236A46
:1005C000080E246E7FDF236A010E246E7BDF050E8A
:1005D000146E58DF236A060E246E74DF236A0C0E35
:1005E000246E70DF6AEF0AF0F29CF29EF2BEFDD735
:1005F0009488050E006E002EFED79486060E006EBF
:10060000002EFED78B989498050E006E002EFED714
:100610008B969496D00E1C6E0BDE14C01CF008DE78
:100620009488050E006E002EFED79486060E006E8E
:10063000002EFED782A6FED78B989498050E006EEA
:10064000002EFED78B969496D10E1C6EF1DD006ABB
:1006500025DE01C015F094980000948682A6FED78E
:10066000050E006E002EFED700D000009488050E07
:10067000006E002EFED7C00EF21215C001F004EF7E
:1006800004F09488050E006E002EFED79486060EA8
:10069000006E002EFED78B989498050E006E002EEB
:1006A000FED78B969496D00E1C6EC2DD030E1C6E88
:1006B000BFDD9488050E006E002EFED79486060ED0
:1006C000006E002EFED782A6FED78B989498050E5A
:1006D000006E002EFED78B969496D10E1C6EA8DD70
:1006E000010E006EDBDD01507F0B156E1A6E09DE08
:1006F00001C00BF0010E006ED1DD01503F0B156EF5
:100700001A6EFFDD01C008F0010E006EC7DD01505A
:100710001F0B156E1A6EF5DD01C009F0006ABEDD13
:1007200001C014F001C01AF0ECDD01C00AF0949889
:100730000000948682A6FED7050E006E002EFED71E
:1007400000D000009488050E006E002EFED794881D
:10075000050E006E002EFED79486060E006E002E4B
:10076000FED78B989498050E006E002EFED78B96C0
:100770009496D00E1C6E5CDD1C6A5ADD9488050EC2
:10078000006E002EFED79486060E006E002EFED759
:1007900082A6FED78B989498050E006E002EFED789
:1007A0008B969496D10E1C6E43DD010E006E76DDA5
:1007B00001507F0B156E1A6EA4DD01C005F0010E0D
:1007C000006E6CDD01507F0B156E1A6E9ADD01C054
:1007D00006F0006A63DD01503F0B156E1A6E91DD65
:1007E00001C007F094980000948682A6FED7050EFB
:1007F000006E002EFED700D000009488050E006E1B
:10080000002EFED7146AF0D601C005F005C01AF01C
:1008100078DD01C005F078EF0AF08E0E006E17C08B
:1008200001F016C002F0036A015209E102C001F0B2
:10083000026A080E005E015202E1006A08D0D890F8
:1008400001BE04D0023601360006F9D7019E2AEF18
:1008500005F02250D8B471D0006E2650D8B46DD0B7
:10086000002604E3810E002668E204D07F0E005EBD
:1008700064E363E023C02AF027502A1A238E278ED0
:1008800025502902F4CF2CF024502802F4CF03F095
:10089000F3CF2BF02902F3502C26F4502B22000E1C
:1008A000032225502802F3502C26F4502B22000E50
:1008B000026A0322022223502902F3502B26F4500D
:1008C0000322000E022223502802F3500326F45084
:1008D0000222000E016A012225502702F3502B2626
:1008E000F4500322000E0222012224502702F3506A
:1008F0000326F4500222000E012223502702F35057
:100900000226F4500122002A01BE05D02B36033600
:10091000023601360006000E2BAE0AD0032A022250
:100920000122015005E1025003E1035001E1002AD8
:100930002ABE018E2AAE019E04D0006A016A026AB4
:10094000036A000C010E236E22C024F0BBDD000CF4
:10095000EACF1FF0E9CF1EF018AE08D01E8E1EA8F9
:100960001E2A171E181E172AD8B4182A1838F0097C
:100970001A6E1A26E20F1B6E320F1D6E18500F0BE7
:100980001B261B261D26E90F1C6E1C261C2617384D
:100990000F0B1C261D261C361D361D1E1D3617501E
:1009A0000F0B1D261A36070E196E0A0E1C061D2681
:1009B000FDE31B061C26FDE31A061B26FDE31906B4
:1009C0001A26FDE3EA6A190EE96E070E1E141E9C34
:1009D000E9061E1407E11EB8E92A1EB803D0200E4E
:1009E000006E1CD0E9261D0EE95CD8B41E8CEF50B9
:1009F000006E08E11EBC06D01EB81BD01EB602D089
:100A0000200E0BD01EAE06D02D0E006EED501E9C9B
:100A10001E9E04D01E861E98300E0026EACF18F0C7
:100A2000E9CF17F000C022F08DDF18C0EAFF17C031
:100A3000E9FFEE501EACD7D759EF05F0C284C2B41F
:100A4000FED7C3CF14F0C4CF15F015C017F014C0F3
:100A500016F0E3D603C025F002C024F001C023F055
:100A600000C022F0820E296EE20E286E470E276E1D
:100A70007A0E266EEEDE03C011F002C010F001C047
:100A80000FF000C00EF0236AA00E246E1BDD166A64
:100A9000165002EC00F0162A006E226E53DF050E8F
:100AA000165CF6E1100EE96E15C018F014C017F0D0
:100AB0004FD7080E176E175002EC00F0172A006E81
:100AC000226E40DF0C0E175CF6E1000C2250B608D7
:100AD000226E036A23C026F0238ED890233224325C
:100AE00025320332023201320032222EF6D726AEF0
:100AF0000BD0001E011E021E031E002AD8B4012ABC
:100B0000D8B4022AD8B4032AEAEF05F0006A016AD1
:100B1000026A036A2A6A2B6A2C6A2D6A29502810F5
:100B2000271026102CE0200E2E6ED8902236233669
:100B3000243625362A362B362C362D3629502D5C78
:100B400008E128502C5C05E127502B5C02E126507F
:100B50002A5C0FE326502A5E2750D8A0273C2B5E44
:100B60002850D8A0283C2C5E2950D8A0293C2D5EC6
:100B7000D88000360136023603362E2ED6D7EA6AE2
:100B80002A0EE96E000CE9501A6E19501C6E19E01D
:100B900018C025F017C024F016C023F015C022F0AD
:100BA000296A286A200E276E820E266E52DE03C046
:100BB00018F002C017F001C016F000C015F01C2E8E
:100BC000E7D718C025F017C024F016C023F015C0D1
:100BD00022F07CD703C018F002C017F001C016F055
:100BE00000C015F018AE0DD01A061A8A151E161E72
:100BF000171E181E152AD8B4162AD8B4172AD8B426
:100C0000182A3B0E216E9A0E206ECA0E1F6E1E6AA7
:100C10000A0E1C6E1950D8B41A2A18C025F017C035
:100C200024F016C023F015C022F021C029F020C006
:100C300028F01FC027F01EC026F068DF0150EFCF5C
:100C400015F0ECCF16F0ECCF17F0ECCF18F0005207
:100C50000FE119281C5C0CE01A500CE00F0B1C5C17
:100C600001E037E21ABE35D01ABC04D0200E2DD0D8
:100C7000200E1A161AAA0CD01A9A1950D8A41A06BD
:100C800000501A6E2D0E226E5DDE1A50006E1A6A2A
:100C900019501C5C0AE100501A6E2E0E226E52DEB4
:100CA0001A50006E200E1A16000E300E1AAA0DD021
:100CB0001A9A1950D8A41A0600501A6E2D0E226ED8
:100CC00041DE1A50006E1A6A300E002600C022F073
:100CD00039DE21C025F020C024F01FC023F01EC043
:100CE00022F0296A286A276A0A0E266E0FDF03C0DF
:100CF00021F002C020F001C01FF000C01EF01C2E29
:100D00008CD7A0EF06F0236A800E246E62EC02F00E
:100D1000146A145011EC00F0142A006E226E12DED8
:100D20000D0E145CF6E1890EE96E11C018F010C0CA
:100D300017F00FC016F00EC015F0010E196E23D774
:100D4000120E156E155011EC00F0152A006E226E71
:100D5000F9DD170E155CF6E17BEF0AF01C50016A15
:100D60001B5C03E21BC000F00CD0006A080E1D6E75
:100D70001B3600361C50005CD8B0006E01361D2EAC
:100D8000F7D7000C200E16A8300E176E15C000F015
:100D900015AE07D0001E002A00C015F02D0E176EEC
:100DA000168E015015C01BF0640E1C6ED7DF00C0FC
:100DB00015F0300E0124186E15C01BF00A0E1C6EC3
:100DC000CDDF300E00241A6E300E0124196E17C0CC
:100DD00000F016A602D016AE169416B80BD016AEBA
:100DE00022D016B420D000C018F016B21CD000C01B
:100DF00019F019D0300E185C16E100C018F0200E62
:100E0000176E16A604D01694168216AE1692300EE1
:100E1000195C09E100C019F0200E186E16A6F7D76C
:100E2000169216AE169016A403D017C022F08ADDD3
:100E300016A203D018C022F085DD16A003D019C079
:100E400022F080DD1AC022F07DDD000C236AC00E86
:100E5000246E62EC02F0146A145025EC00F0142A9F
:100E6000006E226E6FDD060E145CF6E107C015F011
:100E7000010E166E87DF3A0E226E64DD06C015F095
:100E8000010E166E7FDF3A0E226E5CDD05C015F096
:100E9000010E166E77DF140E156E155025EC00F05E
:100EA000152A006E226E4EDD190E155CF6E17CEF00
:100EB0000AF0236A800E246E62EC02F0146A145069
:100EC000EEEC00F0142A006E226E3CDD160E145C6F
:100ED000F6E1236AC00E246E62EC02F0146A14502C
:100EE00002EC01F0142A006E226E2CDD0A0E145C56
:100EF000F6E10CC015F0010E166E44DF0E0E156EF5
:100F0000155002EC01F0152A006E226E1BDD1B0E3F
:100F1000155CF6E1135003E0010A12E028D0958039
:100F200083B003D0010E136E0AD0958683B603D02A
:100F3000020E0D6E04D0958483B401D00D6A17D0D3
:100F4000958083B002D0136A11D0958683B606D0FF
:100F50000C2A0C50640801E20C6A08D0958483B412
:100F600005D00C060C5202E1640E0C6E00D092EF1C
:100F70000AF01A9E3F0E18169488050E006E002E79
:100F8000FED79486060E006E002EFED78B9894989E
:100F9000050E006E002EFED78B969496D00E1C6E1A
:100FA00018EC01F01C6A18EC01F01AC01BF094EC6C
:100FB00001F001C01BF001C01CF018EC01F019C0D9
:100FC0001BF094EC01F001C01BF001C01CF018EC08
:100FD00001F018C01BF094EC01F001C01BF001C03F
:100FE0001CF018EC01F017C01BF094EC01F001C0EC
:100FF0001BF001C01CF018EC01F014C01BF094ECC5
:1010000001F001C01BF001C01CF018EC01F015C08C
:101010001BF094EC01F001C01BF001C01CF018ECB7
:1010200001F016C01BF094EC01F001C01BF001C0F0
:101030001CF018EC01F0800E1C6E18EC01F0949876
:101040000000948682A6FED7050E006E002EFED705
:1010500000D000009488050E006E002EFED727EF0A
:101060000AF0236A800E246E62EC02F0146A1450B7
:101070003AEC00F0142A006E226E64DC120E145C4E
:10108000F6E1236AC00E246E62EC02F0480E226E76
:1010900059DC07C015F0010E166E74DE3A0E226E92
:1010A00051DC06C015F0010E166E6CDE3A0E226E93
:1010B00049DC05C015F0010E166E64DE200E226EAE
:1010C00041DC440E226E3EDC08C015F0010E166EA7
:1010D00059DE2F0E226E36DC09C015F0010E166E99
:1010E00051DE2F0E226E2EDC0AC015F0010E166E98
:1010F00049DE1F0E146E14504CEC00F0142A006EE2
:10110000226E20DC230E145CF6E11250F80FD8B0EA
:10111000A7D1080F32EF0AF0958083B003D0010EFB
:10112000126E0AD0958683B602D00D6A05D09584DA
:1011300083B402D0010E0D6E93D1236AC00E246ECB
:1011400062EC02F0146A145066EC00F0142A006E8F
:10115000226EA2EC04F0060E145CF5E107C015F057
:10116000010E166E0FDE0A0E156E155066EC00F0BD
:10117000152A006E226EA2EC04F0160E155CF5E145
:10118000958083B003D0020E126E12D0958683B67E
:1011900006D0072A0750170801E2076A09D095848C
:1011A00083B406D007060750FF0802E1170E076E4A
:1011B00057D1236AC00E246E62EC02F0146A1450F8
:1011C0007AEC00F0142A006E226EA2EC04F0080EF5
:1011D000145CF5E106C015F0010E166ED3DD0C0EA1
:1011E000156E15507AEC00F0152A006E226EA2ECF6
:1011F00004F0150E155CF5E1958083B003D0030E65
:10120000126E12D0958683B606D0062A06503B0889
:1012100001E2066A09D0958483B406D0060606501A
:10122000FF0802E13B0E066E1BD1236AC00E246E3E
:1012300062EC02F0146A14508DEC00F0142A006E77
:10124000226EA2EC04F0090E145CF5E105C015F065
:10125000010E166E97DD0D0E156E15508DEC00F01B
:10126000152A006E226EA2EC04F0190E155CF5E151
:10127000958083B003D0040E126E12D0958683B68B
:1012800006D0052A05503B0801E2056A09D095847D
:1012900083B406D005060550FF0802E13B0E056E3B
:1012A000DFD0236AC00E246E62EC02F0146A145080
:1012B000A2EC00F0142A006E226EA2EC04F0040EE0
:1012C000145CF5E108C015F0010E166E5BDD080E2A
:1012D000156E1550A2EC00F0152A006E226EA2ECDD
:1012E00004F0140E155CF5E1958083B003D0050E73
:1012F000126E12D0958683B607D0082A08501F08B0
:1013000002E2010E086E08D0958483B405D0080669
:10131000085202E11F0E086EA3D0236AC00E246E8D
:1013200062EC02F0146A1450B5EC00F0142A006E5E
:10133000226EA2EC04F0040E145CF5E109C015F075
:10134000010E166E1FDD080E156E1550B5EC00F07F
:10135000152A006E226EA2EC04F0140E155CF5E165
:10136000958083B003D0060E126E12D0958683B698
:1013700007D0092A09500C0802E2010E096E08D0B4
:10138000958483B405D00906095202E10C0E096E5A
:1013900067D0236AC00E246E62EC02F0146A145007
:1013A000C8EC00F0142A006E226EA2EC04F0040EC9
:1013B000145CF5E10AC015F0010E166EE3DC080EB0
:1013C000156E1550C8EC00F0152A006E226EA2ECC6
:1013D00004F0140E155CF5E1958083B003D0070E80
:1013E000126E11D0958683B606D00A2A0A501E08BE
:1013F00001E20A6A08D0958483B405D00A060A522D
:1014000002E11E0E0A6E2CD0236AC00E246E62EC1E
:1014100002F0146A1450DBEC00F0142A006E226E05
:10142000A2EC04F0140E145CF5E1958683B612D09C
:1014300008C014F009C015F00AC016F00BC017F070
:1014400007C018F006C019F005C01AF092D50D6A51
:10145000126A05D0958483B402D0126A0D6A00D056
:1014600092EF0AF0E824F76AF7367F0FF66E140E53
:10147000F7220A00F550FA6E0800F550F96E1811BF
:101480003A11B2112A12A2121A1392130814F86A0E
:10149000D09EEA6AE96AC180C182C184C1960D6AA0
:1014A000126A136AA6EF01F0C19CC28CC28EC18E73
:1014B000C280000E016EC250C70B0110C26E100E2A
:1014C000006E002EFED70000640E146E42EC02F097
:1014D000A0EF02F00D5005E0010A20E0030A21E030
:1014E00021D0236A010E246E62EC02F041EF03F07A
:1014F0001EEC05F008D4AAD4958083B003D0010E69
:101500000D6E0BD0958683B603D0010E0D6E05D0FF
:10151000958483B402D0020E0D6E04D01EEC05F04B
:10152000C8D49FD595928C72C80E146E42EC02F00E
:04153000D1D703000C
:020000040030CA
:0E00000000220E0E000181000FC00FE00F4025
:00000001FF
;PIC18F452
