:020000040000FA
:100000006BEF0CF0F76A140FF66E000EF722090082
:10001000F55012004144433A20256C6420202020F2
:100020000000F76A320FF66E000EF7220900F55055
:100030001200666F726D3A20256620202020000095
:10004000F76A500FF66E000EF7220900F550120005
:1000500054656D70657261747572613A20252E3138
:100060006C66432020202000F76A780FF66E000EA1
:10007000F7220900F5501200486F72613A202530CE
:1000800032643A253032643A253032642020202010
:100090002000F76AA20FF66E000EF7220900F55055
:1000A0001200436F6E6669672052656C6F67696FF7
:1000B000202020200000F76AC60FF66E000EF722FF
:1000C0000900F550120048253032643A2530326478
:1000D0003A253032642044253032642F2530326492
:1000E0002F253032642020202000F76AFA0FF66EA8
:1000F000000EF7220900F5501200486F7261733A42
:100100002530326420202020202020202020202084
:100110000000F76A220FF66E010EF7220900F55073
:1001200012004D696E75746F733A25303264202069
:100130002020202020202000F76A480FF66E010EB4
:10014000F7220900F5501200536567756E646F73EE
:100150003A2530326420202020202020202020201A
:100160002000F76A720FF66E010EF7220900F550B3
:1001700012004469613A253032642020202020207A
:100180002020202020200000F76A980FF66E010E34
:10019000F7220900F55012004D65733A253032649C
:1001A0002020202020202020202020200000F76A6E
:1001B000BE0FF66E010EF7220900F5501200416ED7
:1001C0006F3A25303264202020202020202020205B
:1001D00020200000F76AE40FF66E010EF7220900F6
:1001E000F550120053616C7661723F202B20534909
:1001F0004D2C202D204E414F0000F76A0A0FF66E5D
:10020000020EF7220900F5501200436F6E6669670F
:100210002054656D706572617475726120202020B4
:100220000000F76A320FF66E020EF7220900F55051
:10023000120054656D70204D61783A20253032648B
:100240002020202020202020202020202000080EF8
:10025000016E050E006E002EFED78B969496060E4C
:10026000006E002EFED71D368B98D8B09488D8A08B
:100270009498948682A6FED7012EEBD7050E006EC9
:10028000002EFED78B96949600009488060E006E82
:10029000002EFED7060E006E002EFED7948682A694
:1002A000FED7016A060E006E002EFED782B80180CE
:1002B0008B9694968B989498000C080E1A6E00C03A
:1002C0001BF09488060E006E002EFED7948682A640
:1002D000FED782B8D88082A8D8900136050E006E6D
:1002E000002EFED794968B961A2EEBD79488060E86
:1002F000006E002EFED78B981B50D8A49498000057
:10030000948682A6FED7050E006E002EFED78B9631
:100310009496060E006E002EFED78B989498000CD3
:100320001BC01CF0D8901C32780E1C161C30006EBE
:1003300000323F0E001600501C241D6E1B500F0B88
:100340001D24016E000C1CC01DF01E6A1D50090802
:1003500005E20A0E1D5E100E1E2603D01D501E263D
:1003600001D0F4D71EC001F0000C156A9488050E68
:10037000006E002EFED79486060E006E002EFED76D
:100380008B989498050E006E002EFED78B9694964F
:10039000D00E1D6E5CDF1D6A5ADF9488050E006E5C
:1003A000002EFED79486060E006E002EFED782A683
:1003B000FED78B989498050E006E002EFED78B9674
:1003C0009496D10E1D6E43DF006A77DF01C016F0F0
:1003D00001C01BF0A5DF01C015F0949800009486C1
:1003E00082A6FED7050E006E002EFED700D00000BC
:1003F0009488050E006E002EFED7159E040E006E2A
:10040000002EFED700D09488050E006E002EFED779
:100410009486060E006E002EFED78B989498050EDB
:10042000006E002EFED78B969496D00E1D6E0FDFB9
:100430001D6A0DDF15C01CF086DF01C016F001C07B
:100440001DF005DF9488050E006E002EFED7948601
:10045000060E006E002EFED782A6FED78B989498CB
:10046000050E006E002EFED78B969496D00E1D6E54
:10047000EEDE070E1D6EEBDE800E1D6EE8DE94983C
:100480000000948682A6FED7050E006E002EFED7D1
:1004900000D000009488050E006E002EFED77CEF81
:1004A0000CF0EA6A150EE96EEF500DE0060E016ED3
:1004B000006A002EFED7012EFBD77B0E006E002EA9
:1004C000FED7EF2EF3D7000C030E155E09E3EA6AA0
:1004D000150EE96EEF5004E001D000D0EF2EFDD7ED
:1004E000000C2A2C20D02B50F00B02092C6E2CC0B3
:1004F00081FF8180080E006E002EFED781902B3880
:10050000006EF00E0016005002092C6E2CC081FF08
:100510008180080E006E002EFED78190530E006E73
:10052000002EFED71BD02B50F00B2C6E2CC081FF61
:100530008180080E006E002EFED781902B382C6E25
:10054000F00E2C162CC081FF8180080E006E002E4C
:10055000FED78190530E006E002EFED7000C936ADA
:10056000320E156E9EDF300E816E8180080E006E99
:10057000002EFED78190190E156E93DF300E816E1E
:100580008180080E006E002EFED78190190E156E28
:1005900088DF300E816E8180080E006E002EFED73F
:1005A0008190190E156E7DDF300E816E8180080EF0
:1005B000006E002EFED78190C80E156E85DF200ECE
:1005C000816E8180080E006E002EFED78190C80ECD
:1005D000156E7ADF2A6A280E2B6E83DF2A6A080ED0
:1005E0002B6E7FDF2A6A010E2B6E7BDF050E156EE8
:1005F00058DF2A6A060E2B6E74DF2A6A0C0E2B6EE9
:1006000070DF92EF0CF0F29CF29EF2BEFDD7948860
:10061000050E006E002EFED79486060E006E002E8C
:10062000FED78B989498050E006E002EFED78B9601
:100630009496D00E1D6E0BDE15C01DF008DE94885A
:10064000050E006E002EFED79486060E006E002E5C
:10065000FED782A6FED78B989498050E006E002ECA
:10066000FED78B969496D10E1D6EF1DD006A25DEC5
:1006700001C016F094980000948682A6FED7050E5D
:10068000006E002EFED700D000009488050E006E8C
:10069000002EFED7C00EF21216C001F013EF04F0C8
:1006A0009488050E006E002EFED79486060E006E0E
:1006B000002EFED78B989498050E006E002EFED764
:1006C0008B969496D00E1D6EC2DD030E1D6EBFDD9F
:1006D0009488050E006E002EFED79486060E006EDE
:1006E000002EFED782A6FED78B989498050E006E3A
:1006F000002EFED78B969496D10E1D6EA8DD010EAE
:10070000006EDBDD01507F0B166E1B6E09DE01C033
:100710000BF0010E006ED1DD01503F0B166E1B6E0B
:10072000FFDD01C008F0010E006EC7DD01501F0B98
:10073000166E1B6EF5DD01C009F0006ABEDD01C05A
:1007400015F001C01BF0ECDD01C00AF09498000028
:10075000948682A6FED7050E006E002EFED700D02E
:1007600000009488050E006E002EFED79488050EBA
:10077000006E002EFED79486060E006E002EFED769
:100780008B989498050E006E002EFED78B9694964B
:10079000D00E1D6E5CDD1D6A5ADD9488050E006E5C
:1007A000002EFED79486060E006E002EFED782A67F
:1007B000FED78B989498050E006E002EFED78B9670
:1007C0009496D10E1D6E43DD010E006E76DD015054
:1007D0007F0B166E1B6EA4DD01C005F0010E006ECE
:1007E0006CDD01507F0B166E1B6E9ADD01C006F0AA
:1007F000006A63DD01503F0B166E1B6E91DD01C078
:1008000007F094980000948682A6FED7050E006E2D
:10081000002EFED700D000009488050E006E002E3A
:10082000FED7156AF0D601C005F005C01BF078DDD3
:1008300001C005F0A0EF0CF08E0E006E20C001F09C
:100840001FC002F0036A015209E102C001F0026A0E
:10085000080E005E015202E1006A08D0D89001BE85
:1008600004D0023601360006F9D7019E000C29504B
:10087000D8B471D0006E2D50D8B46DD0002604E3EA
:10088000810E002668E204D07F0E005E64E363E020
:100890002AC031F02E50311A2A8E2E8E2C50300262
:1008A000F4CF33F02B502F02F4CF03F0F3CF32F01C
:1008B0003002F3503326F4503222000E03222C5023
:1008C0002F02F3503326F4503222000E026A032224
:1008D00002222A503002F3503226F4500322000E36
:1008E00002222A502F02F3500326F4500222000E57
:1008F000016A01222C502E02F3503226F4500322BA
:10090000000E022201222B502E02F3500326F45037
:100910000222000E01222A502E02F3500226F45029
:100920000122002A01BE05D03236033602360136D6
:100930000006000E32AE0AD0032A02220122015024
:1009400005E1025003E1035001E1002A31BE018EAE
:1009500031AE019E04D0006A016A026A036A000C8B
:10096000800ED8B2201A256A266A1CC024F02050B6
:10097000241A1B50D8B4DCD0236E006E1F50D8B49C
:10098000E0D0235ED8B481D03DE320C029F0298E89
:1009900021C028F022C027F0266AD89029322832B8
:1009A00027322632232EF8D724AE03D02580DDD07F
:1009B000259023902588EA6A1E0EE96EE9D02598D5
:1009C00024BE0AD023A013D029322832273226325F
:1009D000002AD8B4C5D00BD029BE0CD0D89026366A
:1009E0002736283629360006D8B4BAD0F5D7258C54
:1009F0006BD0259C1CC024F01CAE02D0298EA9D03F
:100A0000299EA7D01FC023F01FC000F01B50235EFB
:100A10001CC029F0298E1DC028F01EC027F0266AB0
:100A2000D8902932283227322632232EF8D724AE06
:100A300003D025829AD025922390258AEA6A220E35
:100A4000E96EA6D0259A24BE0AD023A013D029325D
:100A5000283227322632002AD8B482D00BD029BEC1
:100A60000CD0D89026362736283629360006D8B43A
:100A700077D0F5D7258E28D0259E20C024F020AE33
:100A800002D0298E66D0299E64D020C029F0298EFC
:100A900021C028F022C027F024AE04D0299E25844E
:100AA00064D02594266A2390EA6A1E0EE96E70D0FF
:100AB00024BE1CD01CC024F023A006D0293228322A
:100AC00027322632002A4CE026AE0BD0272A09E135
:100AD000282A07E1292A05E1293228322732002A6B
:100AE0003FE025BC86D725BEC7D71CD0800E291A6B
:100AF00029AE04D03AD020C024F00AD01CC024F083
:100B0000295206E1285204E1275202E1006A21D06D
:100B100029BE08D0D8902636273628362936002E0A
:100B2000F7D71ED024AE02D0298E13D0299E11D023
:100B30001FC000F020C029F021C028F022C027F0FB
:100B400008D01BC000F01CC029F01DC028F01EC03A
:100B500027F029C001F028C002F027C003F034D0EC
:100B6000006A016A026A036A2FD0266A271E281EBD
:100B7000291E261E262A05E1272A03E1282A01E14B
:100B8000292A25B015D725B256D725B48AD7B3D789
:100B9000EF50272605E3282A03E1292AD8B4238029
:100BA000ED52EF50282603E3292AD8B42380ED52D2
:100BB000EF50EFBE01D0800A2926D8B0238025B897
:100BC000FED625BA3FD774D7BAEF07F0010E2A6ECA
:100BD00029C02BF086DC000CEACF24F0E9CF23F00B
:100BE0001DAE08D0238E23A8232A1C1E1D1E1C2ADE
:100BF000D8B41D2A1D38F0091F6E1F26E20F206E83
:100C0000320F226E1D500F0B202620262226E90FC0
:100C1000216E212621261C380F0B21262226213663
:100C20002236221E22361C500F0B22261F36070E9C
:100C30001E6E0A0E21062226FDE320062126FDE374
:100C40001F062026FDE31E061F26FDE3EA6A1E0E90
:100C5000E96E070E2314239CE906231407E123B849
:100C6000E92A23B803D0200E006E1CD0E926220EFC
:100C7000E95CD8B4238CEF50006E08E123BC06D0A9
:100C800023B81BD023B602D0200E0BD023AE06D043
:100C90002D0E006EED50239C239E04D023862398B6
:100CA000300E0026EACF1DF0E9CF1CF000C029F07D
:100CB0008DDF1DC0EAFF1CC0E9FFEE5023ACD7D783
:100CC000F7EF07F02950B608296E036A2AC02DF005
:100CD0002A8ED8902A322B322C3203320232013241
:100CE0000032292EF6D72DAE0BD0001E011E021E9B
:100CF000031E002AD8B4012AD8B4022AD8B4032A81
:100D0000E6EF06F0006A016A026A036A316A326A33
:100D1000336A346A30502F102E102D102CE0200E24
:100D2000356ED89029362A362B362C363136323667
:100D3000333634363050345C08E12F50335C05E1F3
:100D40002E50325C02E12D50315C0FE32D50315EAC
:100D50002E50D8A02E3C325E2F50D8A02F3C335EB0
:100D60003050D8A0303C345ED88000360136023690
:100D70000336352ED6D7EA6A310EE96E000CE950FB
:100D8000216E2050236E19E01FC02CF01EC02BF0E6
:100D90001DC02AF01CC029F0306A2F6A200E2E6E6A
:100DA000820E2D6E64DD03C01FF002C01EF001C074
:100DB0001DF000C01CF0232EE7D71FC02CF01EC072
:100DC0002BF01DC02AF01CC029F07CD703C01FF0F7
:100DD00002C01EF001C01DF000C01CF01FAE0DD0FF
:100DE0002106218A1C1E1D1E1E1E1F1E1C2AD8B471
:100DF0001D2AD8B41E2AD8B41F2A3B0E286E9A0E7C
:100E0000276ECA0E266E256A0A0E236E2050D8B4AD
:100E1000212A1FC02CF01EC02BF01DC02AF01CC0C0
:100E200029F028C030F027C02FF026C02EF025C0B2
:100E30002DF068DF0150EFCF1CF0ECCF1DF0ECCFB0
:100E40001EF0ECCF1FF000520FE12028235C0CE0D5
:100E500021500CE00F0B235C01E037E221BE35D0BE
:100E600021BC04D0200E2DD0200E211621AA0CD09A
:100E7000219A2050D8A421060050216E2D0E296EF3
:100E8000A5DE2150006E216A2050235C0AE100504B
:100E9000216E2E0E296E9ADE2150006E200E211634
:100EA000000E300E21AA0DD0219A2050D8A4210680
:100EB0000050216E2D0E296E89DE2150006E216AB0
:100EC000300E002600C029F081DE28C02CF027C09B
:100ED0002BF026C02AF025C029F0306A2F6A2E6A2E
:100EE0000A0E2D6E0FDF03C028F002C027F001C0EC
:100EF00026F000C025F0232E8CD7000CC284C2B48B
:100F0000FED7C3CF15F0C4CF16F0C80E155C1B6E0C
:100F1000000E16581C6E206E1BC01FF08DDC03C027
:100F20002CF002C02BF001C02AF000C029F06F0E97
:100F3000306E120E2F6E030E2E6E750E2D6E97DC18
:100F400003C01AF002C019F001C018F000C017F079
:100F5000D8928F0E1E6EC20E1D6E750E1C6E790E0F
:100F60001B6E1AC022F019C021F018C020F017C063
:100F70001FF0F6D400C01BF001C01CF002C01DF031
:100F800003C01EF016C020F015C01FF055DC03C0D2
:100F90002CF002C02BF001C02AF000C029F01EC0C6
:100FA00030F01DC02FF01CC02EF01BC02DF05FDCF8
:100FB00003C011F002C010F001C00FF000C00EF02D
:100FC0002A6AA00E2B6E71EC02F01B6A1B5002EC19
:100FD00000F01B2A006E296EF9DD050E1B5CF6E1A0
:100FE000100EE96E16C01DF015C01CF0F5D5080EE8
:100FF0001C6E1C5002EC00F01C2A006E296EE6DD0F
:101000000C0E1C5CF6E12A6AD00E2B6E71EC02F01D
:101010001B6A1B5011EC00F01B2A006E296ED6DDF6
:10102000060E1B5CF6E1890EE96E1AC01FF019C0AE
:101030001EF018C01DF017C01CF0020E206E9FDEBF
:10104000080E1C6E1C5011EC00F01C2A006E296E5C
:10105000BDDD0C0E1C5CF6E1000C16C01DF01A5034
:101060001D1A1DAE05D0D894D89016BED8802FD0AA
:1010700016C01DF019C01EF015501E5E06E01DAE14
:1010800026D0D850010AD86E22D01AC01EF01650B1
:101090001E5E06E01DAE1BD0D850010AD86E17D0D8
:1010A0001BC01EF017501E5E06E01DAE10D0D850BB
:1010B000010AD86E0CD01CC01EF018501E5E06E04F
:1010C0001DAE05D0D850010AD86E01D0D890000CC2
:1010D00012500C5C206A1F6E1CEC04F011C018F05A
:1010E00010C017F00FC016F00EC015F003C01CF0B2
:1010F00002C01BF001C01AF000C019F0AEDF03E31C
:1011000095928C8219D0206A0CC01FF01CEC04F060
:1011100003C018F002C017F001C016F000C015F0AF
:1011200011C01CF010C01BF00FC01AF00EC019F057
:1011300094DF02E395928C92A4EF0CF02A6A800E61
:101140002B6E71EC02F0156A155020EC00F0152A98
:10115000006E296E3BDD0D0E155CF6E1890EE96E21
:1011600011C01FF010C01EF00FC01DF00EC01CF00B
:10117000010E206E04DE120E166E165020EC00F0EA
:10118000162A006E296E22DD170E165CF6E1A6EF18
:101190000CF01D50016A1C5C03E21CC000F00CD076
:1011A000006A080E1E6E1C3600361D50005CD8B05A
:1011B000006E01361E2EF7D7000C200E17A8300E39
:1011C000186E16C000F016AE07D0001E002A00C030
:1011D00016F02D0E186E178E015016C01CF0640EFE
:1011E0001D6ED7DF00C016F0300E0124196E16C038
:1011F0001CF00A0E1D6ECDDF300E00241B6E300E6B
:1012000001241A6E18C000F017A602D017AE17946A
:1012100017B80BD017AE22D017B420D000C019F0E9
:1012200017B21CD000C01AF019D0300E195C16E1AC
:1012300000C019F0200E186E17A604D0179417825C
:1012400017AE1792300E1A5C09E100C01AF0200E9A
:10125000196E17A6F7D7179217AE179017A403D0D9
:1012600018C029F0B3DC17A203D019C029F0AEDCF6
:1012700017A003D01AC029F0A9DC1BC029F0A6DCF6
:10128000000C2A6AC00E2B6E71EC02F0156A155024
:1012900034EC00F0152A006E296E98DC060E155C01
:1012A000F6E107C016F0010E176E87DF3A0E296EC1
:1012B0008DDC06C016F0010E176E7FDF3A0E296E28
:1012C00085DC05C016F0010E176E77DF140E166E62
:1012D000165034EC00F0162A006E296E77DC190ED9
:1012E000165CF6E1A7EF0CF02A6A800E2B6E71EC0B
:1012F00002F0156A1550FDEC00F0152A006E296EFB
:1013000065DC160E155CF6E12A6AC00E2B6E71ECD8
:1013100002F0156A155011EC01F0152A006E296EC5
:1013200055DC0A0E155CF6E10CC016F0010E176EC6
:1013300044DF0E0E166E165011EC01F0162A006EE8
:10134000296E44DC1B0E165CF6E1145003E0010A22
:1013500012E028D0958083B003D0010E146E0AD01D
:10136000958683B603D0020E0D6E04D0958483B4A7
:1013700001D00D6A17D0958083B002D0146A11D0C5
:10138000958683B606D00C2A0C50640801E20C6ADC
:1013900008D0958483B405D00C060C5202E1640E8B
:1013A0000C6E00D0BDEF0CF01B9E3F0E19169488FA
:1013B000050E006E002EFED79486060E006E002EDF
:1013C000FED78B989498050E006E002EFED78B9654
:1013D0009496D00E1D6E27EC01F01D6A27EC01F0EB
:1013E0001BC01CF0A3EC01F001C01CF001C01DF0FB
:1013F00027EC01F01AC01CF0A3EC01F001C01CF0B6
:1014000001C01DF027EC01F019C01CF0A3EC01F0A5
:1014100001C01CF001C01DF027EC01F018C01CF049
:10142000A3EC01F001C01CF001C01DF027EC01F09D
:1014300015C01CF0A3EC01F001C01CF001C01DF0B0
:1014400027EC01F016C01CF0A3EC01F001C01CF069
:1014500001C01DF027EC01F017C01CF0A3EC01F057
:1014600001C01CF001C01DF027EC01F0800E1D6EC4
:1014700027EC01F094980000948682A6FED7050E12
:10148000006E002EFED700D000009488050E006E7E
:10149000002EFED74BEF0CF02A6A800E2B6E71ECFB
:1014A00002F0156A155049EC00F0152A006E296EFD
:1014B000E6EC05F0120E155CF5E12A6AC00E2B6E03
:1014C00071EC02F0480E296EE6EC05F007C016F04C
:1014D000010E176E72DE3A0E296EE6EC05F006C0BC
:1014E00016F0010E176E69DE3A0E296EE6EC05F075
:1014F00005C016F0010E176E60DE200E296EE6ECB8
:1015000005F0440E296EE6EC05F008C016F0010E59
:10151000176E53DE2F0E296EE6EC05F009C016F0AB
:10152000010E176E4ADE2F0E296EE6EC05F00AC09A
:1015300016F0010E176E41DE1F0E156E15505BEC96
:1015400000F0152A006E296EE6EC05F0230E155CFE
:10155000F5E11350F80FD8B0A7D1080F56EF0CF0F3
:10156000958083B003D0010E136E0AD0958683B6A2
:1015700002D00D6A05D0958483B402D0010E0D6EA1
:1015800093D12A6AC00E2B6E71EC02F0156A1550C9
:1015900075EC00F0152A006E296EE6EC05F0060EDB
:1015A000155CF5E107C016F0010E176E06DE0A0E97
:1015B000166E165075EC00F0162A006E296EE6ECD9
:1015C00005F0160E165CF5E1958083B003D0020E8F
:1015D000136E12D0958683B606D0072A07501708D7
:1015E00001E2076A09D0958483B406D00706075044
:1015F000FF0802E1170E076E57D12A6AC00E2B6E44
:1016000071EC02F0156A155089EC00F0152A006E95
:10161000296EE6EC05F0080E155CF5E106C016F043
:10162000010E176ECADD0C0E166E165089EC00F016
:10163000162A006E296EE6EC05F0150E165CF5E133
:10164000958083B003D0030E136E12D0958683B6B7
:1016500006D0062A06503B0801E2066A09D09584A6
:1016600083B406D006060650FF0802E13B0E066E64
:101670001BD12A6AC00E2B6E71EC02F0156A155050
:101680009CEC00F0152A006E296EE6EC05F0090EC0
:10169000155CF5E105C016F0010E176E8EDD0D0E1E
:1016A000166E16509CEC00F0162A006E296EE6ECC1
:1016B00005F0190E165CF5E1958083B003D0040E99
:1016C000136E12D0958683B606D0052A05503B08C6
:1016D00001E2056A09D0958483B406D00506055059
:1016E000FF0802E13B0E056EDFD02A6AC00E2B6EAA
:1016F00071EC02F0156A1550B1EC00F0152A006E7D
:10170000296EE6EC05F0040E155CF5E108C016F054
:10171000010E176E52DD080E166E1650B1EC00F079
:10172000162A006E296EE6EC05F0140E165CF5E143
:10173000958083B003D0050E136E12D0958683B6C4
:1017400007D0082A08501F0802E2010E086E08D0D0
:10175000958483B405D00806085202E11F0E086E76
:10176000A3D02A6AC00E2B6E71EC02F0156A1550D8
:10177000C4EC00F0152A006E296EE6EC05F0040EAC
:10178000155CF5E109C016F0010E176E16DD080EA6
:10179000166E1650C4EC00F0162A006E296EE6ECA8
:1017A00005F0140E165CF5E1958083B003D0060EAB
:1017B000136E12D0958683B607D0092A09500C08FB
:1017C00002E2010E096E08D0958483B405D00906A3
:1017D000095202E10C0E096E67D02A6AC00E2B6E08
:1017E00071EC02F0156A1550D7EC00F0152A006E66
:1017F000296EE6EC05F0040E155CF5E10AC016F062
:10180000010E176EDADC080E166E1650D7EC00F0DB
:10181000162A006E296EE6EC05F0140E165CF5E152
:10182000958083B003D0070E136E11D0958683B6D2
:1018300006D00A2A0A501E0801E20A6A08D09584D6
:1018400083B405D00A060A5202E11E0E0A6E2CD09D
:101850002A6AC00E2B6E71EC02F0156A1550EAEC84
:1018600000F0152A006E296EE6EC05F0140E155CEA
:10187000F5E1958683B612D008C015F009C016F0C0
:101880000AC017F00BC018F007C019F006C01AF014
:1018900005C01BF089D50D6A136A05D0958483B401
:1018A00002D0136A0D6A00D0BDEF0CF0E824F76A8D
:1018B000F736C70FF66E180EF7220A00F550FA6ECB
:1018C0000800F550F96E60158215FA157216EA16C1
:1018D0006217DA175018F86AD09EEA6AE96AC1807E
:1018E000C182C184C1961E0E0C6E0D6A030E126E6B
:1018F000136A146AB5EF01F0C19CC28CC28EC18E0E
:10190000C280000E016EC250C70B0110C26E100ED5
:10191000006E002EFED70000640E156E51EC02F032
:10192000AFEF02F00D5005E0010A23E0030A24E0C6
:1019300024D02A6A010E2B6E71EC02F050EF03F0F6
:101940007EEC07F068EF08F09EEF08F09AD49580DF
:1019500083B003D0010E0D6E0BD0958683B603D0F5
:10196000010E0D6E05D0958483B402D0020E0D6E6B
:1019700004D07EEC07F0B8D48FD5C80E156E51ECAC
:0619800002F0D0D70300C5
:020000040030CA
:0E00000000220E0E000181000FC00FE00F4025
:00000001FF
;PIC18F452
