:020000040000FA
:100000009BEF05F0F76A140FF66E000EF722090059
:10001000F550120054656D70657261747572613AC5
:1000200020252E316C66432020200000F76A3C0F0B
:10003000F66E000EF7220900F5501200486F72614B
:100040003A20253032643A253032643A2530326421
:100050000000080E016E050E006E002EFED78B9676
:100060009496060E006E002EFED71B368B98D8B0E5
:100070009488D8A09498948682A6FED7012EEBD7B8
:10008000050E006E002EFED78B9694960000948885
:10009000060E006E002EFED7060E006E002EFED756
:1000A000948682A6FED7016A060E006E002EFED749
:1000B00082B801808B9694968B989498000C080EC9
:1000C000176E00C018F09488060E006E002EFED742
:1000D000948682A6FED782B8D88082A8D8900136AE
:1000E000050E006E002EFED794968B96172EEBD73A
:1000F0009488060E006E002EFED78B981850D8A458
:1001000094980000948682A6FED7050E006E002EFD
:10011000FED78B969496060E006E002EFED78B9817
:100120009498000C18C019F0D8901932780E19164E
:100130001930006E00323F0E0016005019241A6E5E
:1001400018500F0B1A24016E000C1AC01BF01C6A09
:100150001B50090805E20A0E1B5E100E1C2603D078
:100160001B501C2601D0F4D71CC001F0000C136AF0
:100170009488050E006E002EFED79486060E006E43
:10018000002EFED78B989498050E006E002EFED799
:100190008B969496D00E1B6E5CDF1B6A5ADF948898
:1001A000050E006E002EFED79486060E006E002E01
:1001B000FED782A6FED78B989498050E006E002E6F
:1001C000FED78B969496D10E1B6E43DF006A77DFC5
:1001D00001C014F001C018F0A5DF01C013F094981D
:1001E0000000948682A6FED7050E006E002EFED774
:1001F00000D000009488050E006E002EFED7139EDE
:10020000040E006E002EFED700D09488050E006EFE
:10021000002EFED79486060E006E002EFED78B9819
:100220009498050E006E002EFED78B969496D00EF5
:100230001B6E0FDF1B6A0DDF13C01AF086DF01C0D3
:1002400014F001C01BF005DF9488050E006E002E2F
:10025000FED79486060E006E002EFED782A6FED72D
:100260008B989498050E006E002EFED78B96949670
:10027000D00E1B6EEEDE070E1B6EEBDE800E1B6ECD
:10028000E8DE94980000948682A6FED7050E006EE4
:10029000002EFED700D000009488050E006E002EC0
:1002A000FED7A5EF05F0199E3F0E17169488050E90
:1002B000006E002EFED79486060E006E002EFED72E
:1002C0008B989498050E006E002EFED78B96949610
:1002D000D00E1B6EBEDE1B6ABCDE19C01AF035DF05
:1002E00001C01AF001C01BF0B4DE18C01AF02DDFF7
:1002F00001C01AF001C01BF0ACDE17C01AF025DFF8
:1003000001C01AF001C01BF0A4DE16C01AF01DDFF8
:1003100001C01AF001C01BF09CDE13C01AF015DFFB
:1003200001C01AF001C01BF094DE14C01AF00DDFFA
:1003300001C01AF001C01BF08CDE15C01AF005DFF9
:1003400001C01AF001C01BF084DE800E1B6E81DE3E
:1003500094980000948682A6FED7050E006E002EAB
:10036000FED700D000009488050E006E002EFED748
:10037000B5EF05F0EA6A140EE96EEF500DE0060ED7
:10038000016E006A002EFED7012EFBD77B0E006E99
:10039000002EFED7EF2EF3D7000C030E135E09E3F9
:1003A000EA6A130EE96EEF5004E001D000D0EF2EA0
:1003B000FDD7000C222C20D02350F00B0209246E14
:1003C00024C081FF8180080E006E002EFED7819030
:1003D0002338006EF00E001600500209246E24C06F
:1003E00081FF8180080E006E002EFED78190530E93
:1003F000006E002EFED71BD02350F00B246E24C0BD
:1004000081FF8180080E006E002EFED78190233878
:10041000246EF00E241624C081FF8180080E006E29
:10042000002EFED78190530E006E002EFED7000CDA
:10043000936A320E146E9EDF300E816E8180080E3C
:10044000006E002EFED78190190E146E93DF300ED1
:10045000816E8180080E006E002EFED78190190EED
:10046000146E88DF300E816E8180080E006E002EC3
:10047000FED78190190E146E7DDF300E816E818063
:10048000080E006E002EFED78190C80E136E85DF19
:10049000200E816E8180080E006E002EFED78190A6
:1004A000C80E136E7ADF226A280E236E83DF226A5B
:1004B000080E236E7FDF226A010E236E7BDF050E9E
:1004C000146E58DF226A060E236E74DF226A0C0E49
:1004D000236E70DFCEEF05F08E0E006E16C001F0B9
:1004E00015C002F0036A015209E102C001F0026A7C
:1004F000080E005E015202E1006A08D0D89001BEE9
:1005000004D0023601360006F9D7019EDFEF05F070
:100510002150D8B471D0006E2550D8B46DD00026CB
:1005200004E3810E002668E204D07F0E005E64E3DF
:1005300063E022C029F02650291A228E268E2450EC
:100540002802F4CF2BF023502702F4CF03F0F3CF8F
:100550002AF02802F3502B26F4502A22000E032200
:1005600024502702F3502B26F4502A22000E026A50
:100570000322022222502802F3502A26F45003229A
:10058000000E022222502702F3500326F4500222CA
:10059000000E016A012224502602F3502A26F4504C
:1005A0000322000E0222012223502602F3500326CA
:1005B000F4500222000E012222502602F35002269D
:1005C000F4500122002A01BE05D02A360336023635
:1005D00001360006000E2AAE0AD0032A02220122AA
:1005E000015005E1025003E1035001E1002A29BE58
:1005F000018E29AE019E04D0006A016A026A036A74
:10060000000C1950D8B4A5D0256E1D50D8B4A1D077
:10061000255E05E37F0E2526D8B09BD006D0810E3F
:10062000255ED8A096D0D8B494D025C000F0016A39
:10063000026A036A246A1AC023F0238E1BC022F0C8
:100640001CC021F0190E256E2050215E0DE2010E16
:10065000225E0AE2235E08E2245E06E2242A232ABE
:10066000222A2050212628D01F50225E12E2010E9D
:10067000235E0FE2245E0DE2242A232A1F50222645
:100680002050212619E3222A17E1232A15E1242AE2
:1006900013D01E508009235E0EE2010E245E0BE291
:1006A000242A1E50800923261F502226E9E3232AEC
:1006B000E7E1242AE5D70380252E01D00BD0D8907E
:1006C0002136223623362436D890033602360136B8
:1006D0002636BAD726A006D0D8900132023203328D
:1006E000263202D0000635E026BE1ED0D890213634
:1006F0002236233624362050215E07E2010E225E88
:1007000004E2235E02E2245E1AE31F50225E05E249
:10071000010E235E02E2245E12E31E508009235E76
:1007200003E2010E245E0BE3032A09E1022A07E13A
:10073000012A05E1002A0DE00132023203321AC01B
:1007400025F01E50251A25AE02D0018E06D0019E3E
:1007500004D0006A016A026A036A06EF06F0010E1D
:10076000226E21C023F026DE000C2150B608216E37
:10077000036A22C025F0228ED890223223322432FE
:100780000332023201320032212EF6D725AE0BD0D1
:10079000001E011E021E031E002AD8B4012AD8B46E
:1007A000022AD8B4032A39EF04F0006A016A026A07
:1007B000036A296A2A6A2B6A2C6A28502710261095
:1007C00025102CE0200E2D6ED890213622362336AF
:1007D000243629362A362B362C3628502C5C08E154
:1007E00027502B5C05E126502A5C02E12550295C4C
:1007F0000FE32550295E2650D8A0263C2A5E2750BC
:10080000D8A0273C2B5E2850D8A0283C2C5ED8804E
:1008100000360136023603362D2ED6D7EA6A290E67
:10082000E96E000CE950196E18501B6E19E017C0E4
:1008300024F016C023F015C022F014C021F0286A5D
:10084000276A200E266E820E256E62DE03C017F028
:1008500002C016F001C015F000C014F01B2EE7D73F
:1008600017C024F016C023F015C022F014C021F0E8
:100870007CD703C017F002C016F001C015F000C00D
:1008800014F017AE0DD01906198A141E151E161E67
:10089000171E142AD8B4152AD8B4162AD8B4172A81
:1008A0003B0E206E9A0E1F6ECA0E1E6E1D6A0A0E39
:1008B0001B6E1850D8B4192A17C024F016C023F0A4
:1008C00015C022F014C021F020C028F01FC027F06E
:1008D0001EC026F01DC025F068DF0150EFCF14F0D8
:1008E000ECCF15F0ECCF16F0ECCF17F000520FE183
:1008F00018281B5C0CE019500CE00F0B1B5C01E08E
:1009000037E219BE35D019BC04D0200E2DD0200EF0
:10091000191619AA0CD0199A1850D8A41906005003
:10092000196E2D0E216E1BDF1950006E196A1850BA
:100930001B5C0AE10050196E2E0E216E10DF19505B
:10094000006E200E1916000E300E19AA0DD0199A3D
:100950001850D8A419060050196E2D0E216EFFDE16
:100960001950006E196A300E002600C021F0F7DE23
:1009700020C024F01FC023F01EC022F01DC021F0B3
:10098000286A276A266A0A0E256E0FDF03C020F048
:1009900002C01FF001C01EF000C01DF01B2E8CD73E
:1009A0002BEF06F0F29CF29EF2BEFDD79488050E66
:1009B000006E002EFED79486060E006E002EFED727
:1009C0008B989498050E006E002EFED78B96949609
:1009D000D00E1B6E29EC00F013C01BF029EC00F0C8
:1009E0009488050E006E002EFED79486060E006ECB
:1009F000002EFED782A6FED78B989498050E006E27
:100A0000002EFED78B969496D10E1B6E29EC00F02B
:100A1000006A5FEC00F001C014F094980000948626
:100A200082A6FED7050E006E002EFED700D0000075
:100A30009488050E006E002EFED7C00EF21214C070
:100A400001F0A2EF06F01B50016A1A5C03E21AC023
:100A500000F00CD0006A080E1C6E1A3600361B50CF
:100A6000005CD8B0006E01361C2EF7D7000C200EAB
:100A700015A8300E166E14C000F014AE07D0001E7C
:100A8000002A00C014F02D0E166E158E015014C0F1
:100A90001AF0640E1B6ED7DF00C014F0300E012474
:100AA000176E14C01AF00A0E1B6ECDDF300E002434
:100AB000196E300E0124186E16C000F015A602D073
:100AC00015AE159415B80BD015AE22D015B420D0A4
:100AD00000C017F015B21CD000C018F019D0300EAD
:100AE000175C16E100C017F0200E166E15A604D094
:100AF0001594158215AE1592300E185C09E100C0F0
:100B000018F0200E176E15A6F7D7159215AE159092
:100B100015A403D016C021F022DE15A203D017C001
:100B200021F01DDE15A003D018C021F018DE19C079
:100B300021F015DE000CF86AD09EEA6AE96AC180ED
:100B4000C182C184C196B7EF00F0120E136E0B0E76
:100B5000146E0C0E156E020E166E160E176E050E26
:100B6000186E370E196E53EF01F0C19CC28CC28E05
:100B7000C18EC280000E016EC250C70B0110C26E42
:100B8000100E006E002EFED70000020E136EFA0E3D
:100B9000146EBAEC01F0132EFAD74AD4C284C2B450
:100BA000FED7C3CF06F0C4CF07F0320E065C136E3B
:100BB000000E0758146E166E13C015F08DD403C0C6
:100BC00024F002C023F001C022F000C021F0660E24
:100BD000286E276E0E0E266E820E256E99DC00C0E2
:100BE00015F001C016F002C017F003C018F003C0E2
:100BF0001CF002C01BF001C01AF000C019F0206AFE
:100C00001F6A480E1E6E850E1D6EFBD403C00BF0CE
:100C100002C00AF001C009F000C008F0226A800E8C
:100C2000236EDAEC01F0136A135002EC00F0132A81
:100C3000006E216E94DD0D0E135CF6E1890EE96EF7
:100C40000BC017F00AC016F009C015F008C014F068
:100C5000010E186EE7D5120E146E145002EC00F05F
:100C6000142A006E216E7BDD160E145CF6E1226AFA
:100C7000C00E236EDAEC01F09488050E006E002E93
:100C8000FED79486060E006E002EFED78B989498A1
:100C9000050E006E002EFED78B969496D00E1B6E1E
:100CA00029EC00F01B6A29EC00F09488050E006E18
:100CB000002EFED79486060E006E002EFED782A66A
:100CC000FED78B989498050E006E002EFED78B965B
:100CD0009496D10E1B6E29EC00F0010E006E5FECB5
:100CE00000F001507F0B146E186E92EC00F001C002
:100CF0000CF0010E006E5FEC00F001507F0B146EE3
:100D0000186E92EC00F001C00DF0006A5FEC00F08C
:100D100001503F0B146E186E92EC00F001C00EF003
:100D200094980000948682A6FED7050E006E002ED1
:100D3000FED700D000009488050E006E002EFED76E
:100D4000136A30D601C00CF00CC018F092EC00F021
:100D500001C00CF0136A135016EC00F0132A006E59
:100D6000216EFDDC060E135CF6E10EC014F0010EE0
:100D7000156E7DDE3A0E216EF2DC0DC014F0010E10
:100D8000156E75DE3A0E216EEADC0CC014F0010E11
:100D9000156E6DDE95988C78020E136EFA0E146E39
:0C0DA000BAEC01F0132EFAD7F9D60300CC
:020000040030CA
:0E00000000220E0E000181000FC00FE00F4025
:00000001FF
;PIC18F452
