:020000040000FA
:100000002EEF03F0F76A140FF66E000EF7220900C8
:10001000F550120054656D70657261747572613AC5
:1000200020252E316C66432020200000EA6A0D0E48
:10003000E96EEF500DE0060E016E006A002EFED74D
:10004000012EFBD77B0E006E002EFED7EF2EF3D7CE
:10005000000C030E0C5E09E3EA6A0C0EE96EEF5029
:1000600004E001D000D0EF2EFDD7000C1B2C20D0D7
:100070001C50F00B02091D6E1DC081FF8180080E0F
:10008000006E002EFED781901C38006EF00E001618
:10009000005002091D6E1DC081FF8180080E006E98
:1000A000002EFED78190530E006E002EFED71BD07F
:1000B0001C50F00B1D6E1DC081FF8180080E006E6C
:1000C000002EFED781901C381D6EF00E1D161DC02F
:1000D00081FF8180080E006E002EFED78190530EA6
:1000E000006E002EFED7000C936A320E0D6E9EDF5E
:1000F000300E816E8180080E006E002EFED781903A
:10010000190E0D6E93DF300E816E8180080E006E29
:10011000002EFED78190190E0D6E88DF300E816E95
:100120008180080E006E002EFED78190190E0D6E94
:100130007DDF300E816E8180080E006E002EFED7AE
:100140008190C80E0C6E85DF200E816E8180080EB6
:10015000006E002EFED78190C80E0C6E7ADF1B6AEF
:10016000280E1C6E83DF1B6A080E1C6E7FDF1B6A65
:10017000010E1C6E7BDF050E0D6E58DF1B6A060E2E
:100180001C6E74DF1B6A0C0E1C6E70DF4EEF03F0EA
:100190008E0E006E0FC001F00EC002F0036A015215
:1001A00009E102C001F0026A080E005E015202E19C
:1001B000006A08D0D89001BE04D00236013600068D
:1001C000F9D7019E5FEF03F01A50D8B471D0006EDA
:1001D0001E50D8B46DD0002604E3810E002668E2DC
:1001E00004D07F0E005E64E363E01BC022F01F506A
:1001F000221A1B8E1F8E1D502102F4CF24F01C509A
:100200002002F4CF03F0F3CF23F02102F350242691
:10021000F4502322000E03221D502002F350242606
:10022000F4502322000E026A032202221B502102F4
:10023000F3502326F4500322000E02221B5020020A
:10024000F3500326F4500222000E016A01221D50D1
:100250001F02F3502326F4500322000E0222012233
:100260001C501F02F3500326F4500222000E0122FC
:100270001B501F02F3500226F4500122002A01BE37
:1002800005D023360336023601360006000E23AEB3
:100290000AD0032A02220122015005E1025003E1A3
:1002A000035001E1002A22BE018E22AE019E04D03D
:1002B000006A016A026A036A000C1250D8B4A5D021
:1002C0001E6E1650D8B4A1D01E5E05E37F0E1E260A
:1002D000D8B09BD006D0810E1E5ED8A096D0D8B4E0
:1002E00094D01EC000F0016A026A036A1D6A13C03E
:1002F0001CF01C8E14C01BF015C01AF0190E1E6ED7
:1003000019501A5E0DE2010E1B5E0AE21C5E08E245
:100310001D5E06E21D2A1C2A1B2A19501A2628D007
:1003200018501B5E12E2010E1C5E0FE21D5E0DE214
:100330001D2A1C2A18501B2619501A2619E31B2A9D
:1003400017E11C2A15E11D2A13D0175080091C5EE5
:100350000EE2010E1D5E0BE21D2A175080091C26BD
:1003600018501B26E9E31C2AE7E11D2AE5D7038084
:100370001E2E01D00BD0D8901A361B361C361D36D7
:10038000D8900336023601361F36BAD71FA006D0E2
:10039000D8900132023203321F3202D0000635E01B
:1003A0001FBE1ED0D8901A361B361C361D3619506B
:1003B0001A5E07E2010E1B5E04E21C5E02E21D5E95
:1003C0001AE318501B5E05E2010E1C5E02E21D5E80
:1003D00012E3175080091C5E03E2010E1D5E0BE361
:1003E000032A09E1022A07E1012A05E1002A0DE0BA
:1003F00001320232033213C01EF017501E1A1EAE15
:1004000002D0018E06D0019E04D0006A016A026A01
:10041000036A86EF03F0010E1B6E1AC01CF026DE85
:10042000000C1A50B6081A6E036A1BC01EF01B8E11
:10043000D8901B321C321D3203320232013200329C
:100440001A2EF6D71EAE0BD0001E011E021E031E72
:10045000002AD8B4012AD8B4022AD8B4032A95EFC6
:1004600002F0006A016A026A036A226A236A246A45
:10047000256A215020101F101E102CE0200E266E21
:10048000D8901A361B361C361D36223623362436B3
:1004900025362150255C08E12050245C05E11F50E1
:1004A000235C02E11E50225C0FE31E50225E1F50AF
:1004B000D8A01F3C235E2050D8A0203C245E2150B1
:1004C000D8A0213C255ED88000360136023603369E
:1004D000262ED6D7EA6A220EE96E000CE950126E7B
:1004E0001150146E19E010C01DF00FC01CF00EC0AA
:1004F0001BF00DC01AF0216A206A200E1F6E820EBA
:100500001E6E62DE03C010F002C00FF001C00EF0DC
:1005100000C00DF0142EE7D710C01DF00FC01CF066
:100520000EC01BF00DC01AF07CD703C010F002C043
:100530000FF001C00EF000C00DF010AE0DD012068D
:10054000128A0D1E0E1E0F1E101E0D2AD8B40E2A62
:10055000D8B40F2AD8B4102A3B0E196E9A0E186E12
:10056000CA0E176E166A0A0E146E1150D8B4122AEB
:1005700010C01DF00FC01CF00EC01BF00DC01AF013
:1005800019C021F018C020F017C01FF016C01EF0CF
:1005900068DF0150EFCF0DF0ECCF0EF0ECCF0FF095
:1005A000ECCF10F000520FE11128145C0CE0125057
:1005B0000CE00F0B145C01E037E212BE35D012BC28
:1005C00004D0200E2DD0200E121612AA0CD0129A92
:1005D0001150D8A412060050126E2D0E1A6E1BDF99
:1005E0001250006E126A1150145C0AE10050126E33
:1005F0002E0E1A6E10DF1250006E200E1216000E14
:10060000300E12AA0DD0129A1150D8A41206005022
:10061000126E2D0E1A6EFFDE1250006E126A300E30
:10062000002600C01AF0F7DE19C01DF018C01CF03B
:1006300017C01BF016C01AF0216A206A1F6A0A0E42
:100640001E6E0FDF03C019F002C018F001C017F0D2
:1006500000C016F0142E8CD7A9EF03F0F86AD09ED4
:10066000EA6AE96AC180C182C184C196C19CC28C18
:10067000C28EC18EC280000E016EC250C70B011027
:10068000C26E100E006E002EFED70000020E0C6E21
:10069000FA0E0D6ECBDC0C2EFBD726D5C284C2B46D
:1006A000FED7C3CF06F0C4CF07F0320E065C0C6E47
:1006B000000E07580D6E0F6E0CC00EF069D503C00A
:1006C0001DF002C01CF001C01BF000C01AF0660E45
:1006D000216E206E0E0E1F6E820E1E6E75DD00C026
:1006E0000EF001C00FF002C010F003C011F003C003
:1006F00015F002C014F001C013F000C012F0196A26
:10070000186A480E176E850E166ED7D503C00BF00B
:1007100002C00AF001C009F000C008F01B6A800E98
:100720001C6EA4DC0C6A0C506DDC0C2A006E1A6E78
:1007300072DE0D0E0C5CF7E1890EE96E0BC010F055
:100740000AC00FF009C00EF008C00DF0010E116EC6
:10075000C5D6120E0D6E0D5055DC0D2A006E1A6EA8
:100760005ADE160E0D5CF7E195988C78020E0C6E31
:0E077000FA0E0D6E5BDC0C2EFBD790D703004B
:020000040030CA
:0E00000000220E0E000181000FC00FE00F4025
:00000001FF
;PIC18F452
