:020000040000FA
:100000008CEF0BF0F76A140FF66E000EF722090062
:10001000F550120054656D70657261747572613AC5
:1000200020252E306C66432020202000F76A3C0FEC
:10003000F66E000EF7220900F5501200486F72614B
:100040003A20253032643A253032643A2530326421
:10005000202020202000F76A660FF66E000EF7229F
:100060000900F5501200436F6E6669672052656C97
:100070006F67696F202020200000F76A8A0FF66EF4
:10008000000EF7220900F550120048253032643A7C
:10009000253032643A253032642044253032642FD2
:1000A000253032642F253032642020202000F76A6A
:1000B000BE0FF66E000EF7220900F5501200486FD1
:1000C0007261733A253032642020202020202020C5
:1000D000202020200000F76AE60FF66E000EF722BF
:1000E0000900F55012004D696E75746F733A253032
:1000F000326420202020202020202000F76A0C0FCE
:10010000F66E010EF7220900F5501200536567756F
:100110006E646F733A253032642020202020202026
:10012000202020202000F76A360FF66E010EF722FD
:100130000900F55012004469613A253032642020EC
:10014000202020202020202020200000F76A5C0FA3
:10015000F66E010EF7220900F55012004D65733A54
:100160002530326420202020202020202020202024
:100170000000F76A820FF66E010EF7220900F550B3
:100180001200416E6F3A253032642020202020205A
:100190002020202020200000F76AA80FF66E010E14
:1001A000F7220900F550120053616C7661723F200E
:1001B0002D204E414F2C202B2053494D0000F76A33
:1001C000CE0FF66E010EF7220900F5501200436FB4
:1001D0006E6669672054656D7065726174757261D1
:1001E000202020200000F76AF60FF66E010EF7229D
:1001F0000900F550120054656D70204D61783A2069
:100200002530326420202020202020202020202083
:100210002000080E016E050E006E002EFED78B9694
:100220009496060E006E002EFED71D368B98D8B021
:100230009488D8A09498948682A6FED7012EEBD7F6
:10024000050E006E002EFED78B96949600009488C3
:10025000060E006E002EFED7060E006E002EFED794
:10026000948682A6FED7016A060E006E002EFED787
:1002700082B801808B9694968B989498000C080E07
:100280001A6E00C01BF09488060E006E002EFED77A
:10029000948682A6FED782B8D88082A8D8900136EC
:1002A000050E006E002EFED794968B961A2EEBD775
:1002B0009488060E006E002EFED78B981B50D8A493
:1002C00094980000948682A6FED7050E006E002E3C
:1002D000FED78B969496060E006E002EFED78B9856
:1002E0009498000C1BC01CF0D8901C32780E1C1681
:1002F0001C30006E00323F0E001600501C241D6E94
:100300001B500F0B1D24016E000C1CC01DF01E6A3B
:100310001D50090805E20A0E1D5E100E1E2603D0B0
:100320001D501E2601D0F4D71EC001F0000C156A26
:100330009488050E006E002EFED79486060E006E81
:10034000002EFED78B989498050E006E002EFED7D7
:100350008B969496D00E1D6E5CDF1D6A5ADF9488D2
:10036000050E006E002EFED79486060E006E002E3F
:10037000FED782A6FED78B989498050E006E002EAD
:10038000FED78B969496D10E1D6E43DF006A77DF01
:1003900001C016F001C01BF0A5DF01C015F0949854
:1003A0000000948682A6FED7050E006E002EFED7B2
:1003B00000D000009488050E006E002EFED7159E1A
:1003C000040E006E002EFED700D09488050E006E3D
:1003D000002EFED79486060E006E002EFED78B9858
:1003E0009498050E006E002EFED78B969496D00E34
:1003F0001D6E0FDF1D6A0DDF15C01CF086DF01C00A
:1004000016F001C01DF005DF9488050E006E002E69
:10041000FED79486060E006E002EFED782A6FED76B
:100420008B989498050E006E002EFED78B969496AE
:10043000D00E1D6EEEDE070E1D6EEBDE800E1D6E05
:10044000E8DE94980000948682A6FED7050E006E22
:10045000002EFED700D000009488050E006E002EFE
:10046000FED79DEF0BF0EA6A150EE96EEF500DE036
:10047000060E016E006A002EFED7012EFBD77B0E02
:10048000006E002EFED7EF2EF3D7000C030E155E84
:1004900009E3EA6A150EE96EEF5004E001D000D0DE
:1004A000EF2EFDD7000C242C20D02550F00B020994
:1004B000266E26C081FF8180080E006E002EFED7BA
:1004C00081902538006EF00E001600500209266E4D
:1004D00026C081FF8180080E006E002EFED781901D
:1004E000530E006E002EFED71BD02550F00B266E4B
:1004F00026C081FF8180080E006E002EFED78190FD
:100500002538266EF00E261626C081FF8180080E43
:10051000006E002EFED78190530E006E002EFED787
:10052000000C936A320E156E9EDF300E816E818054
:10053000080E006E002EFED78190190E156E93DF07
:10054000300E816E8180080E006E002EFED78190E5
:10055000190E156E88DF300E816E8180080E006ED8
:10056000002EFED78190190E156E7DDF300E816E44
:100570008180080E006E002EFED78190C80E156E89
:1005800085DF200E816E8180080E006E002EFED762
:100590008190C80E156E7ADF246A280E256E83DFDF
:1005A000246A080E256E7FDF246A010E256E7BDF2C
:1005B000050E156E58DF246A060E256E74DF246A58
:1005C0000C0E256E70DFB3EF0BF0F29CF29EF2BEC4
:1005D000FDD79488050E006E002EFED79486060E79
:1005E000006E002EFED78B989498050E006E002E9C
:1005F000FED78B969496D00E1D6E0BDE15C01DF0A7
:1006000008DE9488050E006E002EFED79486060E36
:10061000006E002EFED782A6FED78B989498050E0A
:10062000006E002EFED78B969496D10E1D6EF1DDD6
:10063000006A25DE01C016F094980000948682A618
:10064000FED7050E006E002EFED700D00000948865
:10065000050E006E002EFED7C00EF21216C001F07D
:10066000F5EF03F09488050E006E002EFED79486F9
:10067000060E006E002EFED78B989498050E006E25
:10068000002EFED78B969496D00E1D6EC2DD030E03
:100690001D6EBFDD9488050E006E002EFED7948679
:1006A000060E006E002EFED782A6FED78B98949879
:1006B000050E006E002EFED78B969496D10E1D6E01
:1006C000A8DD010E006EDBDD01507F0B166E1B6E88
:1006D00009DE01C00BF0010E006ED1DD01503F0BB1
:1006E000166E1B6EFFDD01C008F0010E006EC7DD47
:1006F00001501F0B166E1B6EF5DD01C009F0006A7C
:10070000BEDD01C015F001C01BF0ECDD01C00AF038
:1007100094980000948682A6FED7050E006E002EE7
:10072000FED700D000009488050E006E002EFED784
:100730009488050E006E002EFED79486060E006E7D
:10074000002EFED78B989498050E006E002EFED7D3
:100750008B969496D00E1D6E5CDD1D6A5ADD9488D2
:10076000050E006E002EFED79486060E006E002E3B
:10077000FED782A6FED78B989498050E006E002EA9
:10078000FED78B969496D10E1D6E43DD010E006E42
:1007900076DD01507F0B166E1B6EA4DD01C005F0E7
:1007A000010E006E6CDD01507F0B166E1B6E9ADD24
:1007B00001C006F0006A63DD01503F0B166E1B6E30
:1007C00091DD01C007F094980000948682A6FED7C0
:1007D000050E006E002EFED700D000009488050E96
:1007E000006E002EFED7156AF0D601C005F005C0D8
:1007F0001BF078DD01C005F0C1EF0BF08E0E006E2E
:1008000020C001F01FC002F0036A015209E102C0DA
:1008100001F0026A080E005E015202E1006A08D08F
:10082000D89001BE04D0023601360006F9D7019EE9
:10083000000C2350D8B471D0006E2750D8B46DD0BE
:10084000002604E3810E002668E204D07F0E005EDD
:1008500064E363E024C02BF028502B1A248E288EEA
:1008600026502A02F4CF2DF025502902F4CF03F0B0
:10087000F3CF2CF02A02F3502D26F4502C22000E38
:10088000032226502902F3502D26F4502C22000E6C
:10089000026A0322022224502A02F3502C26F4502A
:1008A0000322000E022224502902F3500326F450A2
:1008B0000222000E016A012226502802F3502C2643
:1008C000F4500322000E0222012225502802F35088
:1008D0000326F4500222000E012224502802F35075
:1008E0000226F4500122002A01BE05D02C36033620
:1008F000023601360006000E2CAE0AD0032A022270
:100900000122015005E1025003E1035001E1002AF8
:100910002BBE018E2BAE019E04D0006A016A026AD2
:10092000036A000C1CC023F02050231A23AE05D00C
:10093000D894D8901CBED8802FD01CC023F01FC0E4
:1009400024F01B50245E06E023AE26D0D850010AC6
:10095000D86E22D020C024F01C50245E06E023AEC6
:100960001BD0D850010AD86E17D021C024F01D50DA
:10097000245E06E023AE10D0D850010AD86E0CD009
:1009800022C024F01E50245E06E023AE05D0D850CD
:10099000010AD86E01D0D890000C800ED8B2201A6F
:1009A000256A266A1CC024F02050241A1B50D8B493
:1009B000DCD0236E006E1F50D8B4E0D0235ED8B4D4
:1009C00081D03DE320C029F0298E21C028F022C02B
:1009D00027F0266AD8902932283227322632232E51
:1009E000F8D724AE03D02580DDD02590239025882C
:1009F000EA6A1E0EE96EE9D0259824BE0AD023A02B
:100A000013D02932283227322632002AD8B4C5D052
:100A10000BD029BE0CD0D89026362736283629365A
:100A20000006D8B4BAD0F5D7258C6BD0259C1CC055
:100A300024F01CAE02D0298EA9D0299EA7D01FC0B9
:100A400023F01FC000F01B50235E1CC029F0298E2C
:100A50001DC028F01EC027F0266AD89029322832FF
:100A600027322632232EF8D724AE03D025829AD0FF
:100A700025922390258AEA6A220EE96EA6D0259A4D
:100A800024BE0AD023A013D029322832273226329E
:100A9000002AD8B482D00BD029BE0CD0D8902636EC
:100AA0002736283629360006D8B477D0F5D7258ED4
:100AB00028D0259E20C024F020AE02D0298E66D0FA
:100AC000299E64D020C029F0298E21C028F022C0A0
:100AD00027F024AE04D0299E258464D02594266A6C
:100AE0002390EA6A1E0EE96E70D024BE1CD01CC092
:100AF00024F023A006D02932283227322632002AB9
:100B00004CE026AE0BD0272A09E1282A07E1292A42
:100B100005E1293228322732002A3FE025BC86D75A
:100B200025BEC7D71CD0800E291A29AE04D03AD0D2
:100B300020C024F00AD01CC024F0295206E128521B
:100B400004E1275202E1006A21D029BE08D0D890E2
:100B50002636273628362936002EF7D71ED024AE63
:100B600002D0298E13D0299E11D01FC000F020C0C2
:100B700029F021C028F022C027F008D01BC000F0C7
:100B80001CC029F01DC028F01EC027F029C001F0AC
:100B900028C002F027C003F034D0006A016A026A5C
:100BA000036A2FD0266A271E281E291E261E262AE3
:100BB00005E1272A03E1282A01E1292A25B015D7D2
:100BC00025B256D725B48AD7B3D7EF50272605E3E9
:100BD000282A03E1292AD8B42380ED52EF50282691
:100BE00003E3292AD8B42380ED52EF50EFBE01D0A1
:100BF000800A2926D8B0238025B8FED625BA3FD74B
:100C000074D751EF06F0C284C2B4FED7C3CF15F03B
:100C1000C4CF16F0DC0E155C1B6E000E16581C6E51
:100C2000206E1BC01FF0EADD03C026F002C025F0D5
:100C300001C024F000C023F0340E2A6E800E296E0D
:100C4000370E286E740E276EF4DD03C01AF002C052
:100C500019F001C018F000C017F01AC01EF019C03A
:100C60001DF018C01CF017C01BF0226A216A206A10
:100C70001F6A58DE04E31A6A196A186A176AD8925A
:100C8000390E1E6EB40E1D6E480E1C6E7A0E1B6E53
:100C90001AC022F019C021F018C020F017C01FF0B0
:100CA0007CD600C01BF001C01CF002C01DF003C0C8
:100CB0001EF016C020F015C01FF0A0DD03C026F006
:100CC00002C025F001C024F000C023F01EC02AF0AD
:100CD0001DC029F01CC028F01BC027F0AADD03C0EE
:100CE00011F002C010F001C00FF000C00EF0000CB7
:100CF00012500C5C206A1F6E81DD11C01EF010C006
:100D00001DF00FC01CF00EC01BF003C022F002C08B
:100D100021F001C020F000C01FF004DE03E3959233
:100D20008C8218D0206A0CC01FF068DD03C01EF052
:100D300002C01DF001C01CF000C01BF011C022F069
:100D400010C021F00FC020F00EC01FF0EBDD02E359
:100D500095928C92C5EF0BF0010E246E23C025F006
:100D600053EC02F0000C2350B608236E036A24C033
:100D700027F0248ED89024322532263203320232D4
:100D800001320032232EF6D727AE0BD0001E011EF3
:100D9000021E031E002AD8B4012AD8B4022AD8B4ED
:100DA000032A37EF07F0006A016A026A036A2B6AB6
:100DB0002C6A2D6A2E6A2A502910281027102CE040
:100DC000200E2F6ED89023362436253626362B3625
:100DD0002C362D362E362A502E5C08E129502D5CFB
:100DE00005E128502C5C02E127502B5C0FE32750D3
:100DF0002B5E2850D8A0283C2C5E2950D8A0293C36
:100E00002D5E2A50D8A02A3C2E5ED88000360136AE
:100E1000023603362F2ED6D7EA6A2B0EE96E000C67
:100E2000E9501B6E1A501D6E19E019C026F018C04B
:100E300025F017C024F016C023F02A6A296A200E74
:100E4000286E820E276EF5DC03C019F002C018F080
:100E500001C017F000C016F01D2EE7D719C026F00C
:100E600018C025F017C024F016C023F07CD703C0AB
:100E700019F002C018F001C017F000C016F019AE4A
:100E80000DD01B061B8A161E171E181E191E162AA9
:100E9000D8B4172AD8B4182AD8B4192A3B0E226E0F
:100EA0009A0E216ECA0E206E1F6A0A0E1D6E1A500F
:100EB000D8B41B2A19C026F018C025F017C024F09A
:100EC00016C023F022C02AF021C029F020C028F04B
:100ED0001FC027F068DF0150EFCF16F0ECCF17F0FE
:100EE000ECCF18F0ECCF19F000520FE11A281D5C7E
:100EF0000CE01B500CE00F0B1D5C01E037E21BBE49
:100F000035D01BBC04D0200E2DD0200E1B161BAAE2
:100F10000CD01B9A1A50D8A41B0600501B6E2D0E25
:100F2000236E1ADF1B50006E1B6A1A501D5C0AE10B
:100F300000501B6E2E0E236E0FDF1B50006E200E16
:100F40001B16000E300E1BAA0DD01B9A1A50D8A4E7
:100F50001B0600501B6E2D0E236EFEDE1B50006E16
:100F60001B6A300E002600C023F0F6DE22C026F0F9
:100F700021C025F020C024F01FC023F02A6A296A6E
:100F8000286A0A0E276E0FDF03C022F002C021F08C
:100F900001C020F000C01FF01D2E8CD7ECEF07F031
:100FA000246A800E256E53EC02F0156A155002EC8F
:100FB00000F0152A006E236ECFDE0D0E155CF6E1F3
:100FC000890EE96E11C019F010C018F00FC017F0AB
:100FD0000EC016F01A6A24D7120E166E165002ECC6
:100FE00000F0162A006E236EB7DE170E165CF6E1CF
:100FF000C6EF0BF01D50016A1C5C03E21CC000F040
:101000000CD0006A080E1E6E1C3600361D50005CA7
:10101000D8B0006E01361E2EF7D7000C200E17A890
:10102000300E186E16C000F016AE07D0001E002A53
:1010300000C016F02D0E186E178E015016C01CF051
:10104000640E1D6ED7DF00C016F0300E0124196E3D
:1010500016C01CF00A0E1D6ECDDF300E00241B6E74
:10106000300E01241A6E18C000F017A602D017AE79
:10107000179417B80BD017AE22D017B420D000C0E9
:1010800019F017B21CD000C01AF019D0300E195C3C
:1010900016E100C019F0200E186E17A604D01794A0
:1010A000178217AE1792300E1A5C09E100C01AF0D1
:1010B000200E196E17A6F7D7179217AE179017A420
:1010C00003D018C023F048DE17A203D019C023F0C4
:1010D00043DE17A003D01AC023F03EDE1BC023F06E
:1010E0003BDE000C246AC00E256E53EC02F0156A3C
:1010F000155016EC00F0152A006E236E2DDE060E3C
:10110000155CF6E107C016F0010E176E87DF3A0E88
:10111000236E22DE06C016F0010E176E7FDF3A0E38
:10112000236E1ADE05C016F0010E176E77DF140E5F
:10113000166E165016EC00F0162A006E236E0CDEAA
:10114000190E165CF6E1C7EF0BF0246A800E256ECF
:1011500053EC02F0156A1550DFEC00F0152A006E12
:10116000236EFADD160E155CF6E1246AC00E256EBC
:1011700053EC02F0156A1550F3EC00F0152A006EDE
:10118000236EEADD0A0E155CF6E10CC016F0010EC6
:10119000176E44DF0E0E166E1650F3EC00F0162A92
:1011A000006E236ED9DD1B0E165CF6E1145003E0D1
:1011B000010A12E028D0958083B003D0010E146E8E
:1011C0000AD0958683B603D0020E0D6E04D09584A6
:1011D00083B401D00D6A17D0958083B002D0146A11
:1011E00011D0958683B606D00C2A0C50640801E213
:1011F0000C6A08D0958483B405D00C060C5202E129
:10120000640E0C6E00D0DDEF0BF01B9E3F0E191626
:101210009488050E006E002EFED79486060E006E92
:10122000002EFED78B989498050E006E002EFED7E8
:101230008B969496D00E1D6E09EC01F01D6A09EC98
:1012400001F01BC01CF085EC01F001C01CF001C0D6
:101250001DF009EC01F01AC01CF085EC01F001C092
:101260001CF001C01DF009EC01F019C01CF085EC68
:1012700001F001C01CF001C01DF009EC01F018C024
:101280001CF085EC01F001C01CF001C01DF009EC60
:1012900001F015C01CF085EC01F001C01CF001C08C
:1012A0001DF009EC01F016C01CF085EC01F001C046
:1012B0001CF001C01DF009EC01F017C01CF085EC1A
:1012C00001F001C01CF001C01DF009EC01F0800E1E
:1012D0001D6E09EC01F094980000948682A6FED75A
:1012E000050E006E002EFED700D000009488050E7B
:1012F000006E002EFED76CEF0BF0246A800E256E78
:1013000053EC02F0156A15502BEC00F0152A006E14
:10131000236E22DD120E155CF6E1246AC00E256EE6
:1013200053EC02F0480E236E17DD07C016F0010ED5
:10133000176E74DE3A0E236E0FDD06C016F0010E36
:10134000176E6CDE3A0E236E07DD05C016F0010E37
:10135000176E64DE200E236EFFDC440E236EFCDC71
:1013600008C016F0010E176E59DE2F0E236EF4DC46
:1013700009C016F0010E176E51DE2F0E236EECDC45
:101380000AC016F0010E176E49DE1F0E156E1550BD
:101390003DEC00F0152A006E236EDEDC230E155C9A
:1013A000F6E11350F80FD8B0A0D1080F77EF0BF08B
:1013B000958083B003D0010E136E0AD0958683B654
:1013C00002D00D6A05D0958483B402D0010E0D6E53
:1013D0008CD1246AC00E256E53EC02F0156A1550AC
:1013E00057EC00F0152A006E236EB6DC060E155C75
:1013F000F6E107C016F0010E176E10DE0A0E166E2B
:10140000165057EC00F0162A006E236EA5DC160E5F
:10141000165CF6E1958083B003D0020E136E12D0F5
:10142000958683B606D0072A0750170801E2076A97
:1014300009D0958483B406D007060750FF0802E15F
:10144000170E076E52D1246AC00E256E53EC02F0BF
:10145000156A15506BEC00F0152A006E236E7CDCCB
:10146000080E155CF6E106C016F0010E176ED6DD0B
:101470000C0E166E16506BEC00F0162A006E236EE2
:101480006BDC150E165CF6E1958083B003D0030E7D
:10149000136E12D0958683B606D0062A06503B08F6
:1014A00001E2066A09D0958483B406D00606065088
:1014B000FF0802E13B0E066E18D1246AC00E256EAD
:1014C00053EC02F0156A15507EEC00F0152A006E00
:1014D000236E42DC090E155CF6E105C016F0010E24
:1014E000176E9CDD0D0E166E16507EEC00F0162A5F
:1014F000006E236E31DC190E165CF6E1958083B028
:1015000003D0040E136E12D0958683B606D0052A3A
:1015100005503B0801E2056A09D0958483B406D0E2
:1015200005060550FF0802E13B0E056EDED0246A79
:10153000C00E256E53EC02F0156A155093EC00F0C6
:10154000152A006E236E08DC040E155CF6E108C057
:1015500016F0010E176E62DD080E166E165093EC33
:1015600000F0162A006E236EACEC06F0140E165C2A
:10157000F5E1958083B003D0050E136E12D09586E9
:1015800083B607D0082A08501F0802E2010E086E31
:1015900008D0958483B405D00806085202E11F0ED6
:1015A000086EA3D0246AC00E256E53EC02F0156AB3
:1015B0001550A6EC00F0152A006E236EACEC06F078
:1015C000040E155CF5E109C016F0010E176E26DD5C
:1015D000080E166E1650A6EC00F0162A006E236E4A
:1015E000ACEC06F0140E165CF5E1958083B003D0E8
:1015F000060E136E12D0958683B607D0092A0950BD
:101600000C0802E2010E096E08D0958483B405D05F
:101610000906095202E10C0E096E67D0246AC00E59
:10162000256E53EC02F0156A1550B9EC00F0152A3E
:10163000006E236EACEC06F0040E155CF5E10AC0FA
:1016400016F0010E176EEADC080E166E1650B9EC95
:1016500000F0162A006E236EACEC06F0140E165C39
:10166000F5E1958083B003D0070E136E11D09586F7
:1016700083B606D00A2A0A501E0801E20A6A08D078
:10168000958483B405D00A060A5202E11E0E0A6E42
:101690002CD0246AC00E256E53EC02F0156A15504A
:1016A000CCEC00F0152A006E236EACEC06F0140EA4
:1016B000155CF5E1958683B612D008C015F009C017
:1016C00016F00AC017F00BC018F007C019F006C0DA
:1016D0001AF005C01BF099D50D6A136A05D09584E0
:1016E00083B402D0136A0D6A00D0DDEF0BF0E8245A
:1016F000F76AF736090FF66E170EF7220A00F55053
:10170000FA6E0800F550F96EB013D2134614BA14ED
:101710002E15A4151C169216F86AD09EEA6AE96A7C
:10172000C180C182C184C1961E0E0C6E0D6A030E6B
:10173000126E136A146A97EF01F0C19CC28CC28EBC
:10174000C18EC280000E016EC250C70B0110C26E66
:10175000100E006E002EFED70000640E156E33ECE6
:1017600002F091EF02F00D5005E0010A22E0030AB9
:1017700023E023D0246A010E256E53EC02F032EFF1
:1017800003F003EC06F078EF06F00AD4ABD49580B2
:1017900083B003D0010E0D6E0BD0958683B603D0B7
:1017A000010E0D6E05D0958483B402D0020E0D6E2D
:1017B00004D003EC06F0C9D4A0D5C80E156E33ECE6
:0617C00002F0D1D7030086
:020000040030CA
:0E00000000220E0E000181000FC00FE00F4025
:00000001FF
;PIC18F452
