:020000040000FA
:1000000032EF0CF0F76A140FF66E000EF7220900BB
:10001000F550120054656D70657261747572613AC5
:1000200020252E306C66432020202000F76A3C0FEC
:10003000F66E000EF7220900F5501200486F72614B
:100040003A20253032643A253032643A2530326421
:10005000202020202000F76A660FF66E000EF7229F
:100060000900F5501200436F6E6669672052656C97
:100070006F67696F202020200000F76A8A0FF66EF4
:10008000000EF7220900F550120048253032643A7C
:10009000253032643A253032642044253032642FD2
:1000A000253032642F25303264202020202020206B
:1000B0000000F76AC20FF66E000EF7220900F55035
:1000C0001200486F7261733A25303264202020207C
:1000D000202020202020202020200000F76AEC0F84
:1000E000F66E000EF7220900F55012004D696E758C
:1000F000746F733A25303264202020202020202085
:10010000202020200000F76A160FF66E010EF7225D
:100110000900F5501200536567756E646F733A25D8
:100120003032642020202020202020202020202069
:1001300020200000F76A440FF66E010EF722090036
:10014000F55012004469613A2530326420202020A5
:100150002020202020202020202020200000F76ABE
:100160006E0FF66E010EF7220900F55012004D6574
:10017000733A2530326420202020202020202020A7
:100180002020202020200000F76A980FF66E010E34
:10019000F7220900F5501200416E6F3A25303264A3
:1001A000202020202020202020202020202020204F
:1001B0000000F76AC20FF66E010EF7220900F55033
:1001C000120053616C7661723F202D204E414F2CFE
:1001D000202B2053494D0000F76AE80FF66E010E00
:1001E000F7220900F5501200436F6E6669672054CC
:1001F000656D706572617475726120202020000049
:10020000F76A100FF66E020EF7220900F550120081
:1002100054656D70204D61783A202530326420207D
:10022000202020202020202020202000080E016EE9
:10023000050E006E002EFED78B969496060E006E6D
:10024000002EFED724368B98D8B09488D8A09498E6
:10025000948682A6FED7012EEBD7050E006E002EE7
:10026000FED78B96949600009488060E006E002EA2
:10027000FED7060E006E002EFED7948682A6FED70D
:10028000016A060E006E002EFED782B801808B96A2
:1002900094968B989498000C080E216E00C022F062
:1002A0009488060E006E002EFED7948682A6FED796
:1002B00082B8D88082A8D8900136050E006E002E34
:1002C000FED794968B96212EEBD79488060E006E5F
:1002D000002EFED78B982250D8A4949800009486C4
:1002E00082A6FED7050E006E002EFED78B96949642
:1002F000060E006E002EFED78B989498000C22C03C
:1003000023F0D8902332780E23162330006E00326B
:100310003F0E001600502324246E22500F0B24247D
:10032000016E000C23C024F0256A2450090805E260
:100330000A0E245E100E252603D02450252601D057
:10034000F4D725C001F0000C1C6A9488050E006EDD
:10035000002EFED79486060E006E002EFED78B98D8
:100360009498050E006E002EFED78B969496D00EB4
:10037000246E5CDF246A5ADF9488050E006E002E1E
:10038000FED79486060E006E002EFED782A6FED7FC
:100390008B989498050E006E002EFED78B9694963F
:1003A000D10E246E43DF006A77DF01C01DF001C06B
:1003B00022F0A5DF01C01CF094980000948682A66C
:1003C000FED7050E006E002EFED700D000009488E8
:1003D000050E006E002EFED71C9E040E006E002E31
:1003E000FED700D09488050E006E002EFED79486AE
:1003F000060E006E002EFED78B989498050E006EA8
:10040000002EFED78B969496D00E246E0FDF246AB2
:100410000DDF1CC023F086DF01C01DF001C024F0F9
:1004200005DF9488050E006E002EFED79486060E1A
:10043000006E002EFED782A6FED78B989498050EEC
:10044000006E002EFED78B969496D00E246EEEDEB4
:10045000070E246EEBDE800E246EE8DE949800001A
:10046000948682A6FED7050E006E002EFED700D021
:1004700000009488050E006E002EFED752EF0CF09F
:10048000EA6A1C0EE96EEF500DE0060E016E006A7E
:10049000002EFED7012EFBD77B0E006E002EFED75E
:1004A000EF2EF3D7000C030E1C5E09E3EA6A1C0E64
:1004B000E96EEF5004E001D000D0EF2EFDD7000C24
:1004C0002B2C20D02C50F00B02092D6E2DC081FF5B
:1004D0008180080E006E002EFED781902C38006EB1
:1004E000F00E0016005002092D6E2DC081FF818094
:1004F000080E006E002EFED78190530E006E002E67
:10050000FED71BD02C50F00B2D6E2DC081FF8180AB
:10051000080E006E002EFED781902C382D6EF00E46
:100520002D162DC081FF8180080E006E002EFED793
:100530008190530E006E002EFED7000C936A320E8F
:100540001C6E9EDF300E816E8180080E006E002EC4
:10055000FED78190190E1C6E93DF300E816E818064
:10056000080E006E002EFED78190190E1C6E88DFDB
:10057000300E816E8180080E006E002EFED78190B5
:10058000190E1C6E7DDF300E816E8180080E006EAC
:10059000002EFED78190C80E1C6E85DF200E816E66
:1005A0008180080E006E002EFED78190C80E1C6E52
:1005B0007ADF2B6A280E2C6E83DF2B6A080E2C6ED6
:1005C0007FDF2B6A010E2C6E7BDF050E1C6E58DF61
:1005D0002B6A060E2C6E74DF2B6A0C0E2C6E70DFED
:1005E00068EF0CF0F29CF29EF2BEFDD79488050EE7
:1005F000006E002EFED79486060E006E002EFED7EB
:100600008B989498050E006E002EFED78B969496CC
:10061000D00E246E0BDE1CC024F008DE9488050E7C
:10062000006E002EFED79486060E006E002EFED7BA
:1006300082A6FED78B989498050E006E002EFED7EA
:100640008B969496D10E246EF1DD006A25DE01C0F2
:100650001DF094980000948682A6FED7050E006EC9
:10066000002EFED700D000009488050E006E002EEC
:10067000FED7C00EF2121DC001F002EF04F0948804
:10068000050E006E002EFED79486060E006E002E1C
:10069000FED78B989498050E006E002EFED78B9691
:1006A0009496D00E246EC2DD030E246EBFDD9488B6
:1006B000050E006E002EFED79486060E006E002EEC
:1006C000FED782A6FED78B989498050E006E002E5A
:1006D000FED78B969496D10E246EA8DD010E006E87
:1006E000DBDD01507F0B1D6E226E09DE01C012F0B2
:1006F000010E006ED1DD01503F0B1D6E226EFFDD3D
:1007000001C00FF0010E006EC7DD01501F0B1D6E02
:10071000226EF5DD01C010F0006ABEDD01C01CF0E4
:1007200001C022F0ECDD01C011F094980000948625
:1007300082A6FED7050E006E002EFED700D0000068
:100740009488050E006E002EFED79488050E006E6C
:10075000002EFED79486060E006E002EFED78B98D4
:100760009498050E006E002EFED78B969496D00EB0
:10077000246E5CDD246A5ADD9488050E006E002E1E
:10078000FED79486060E006E002EFED782A6FED7F8
:100790008B989498050E006E002EFED78B9694963B
:1007A000D10E246E43DD010E006E76DD01507F0B0D
:1007B0001D6E226EA4DD01C00CF0010E006E6CDD1A
:1007C00001507F0B1D6E226E9ADD01C00DF0006A94
:1007D00063DD01503F0B1D6E226E91DD01C00EF0F6
:1007E00094980000948682A6FED7050E006E002E17
:1007F000FED700D000009488050E006E002EFED7B4
:100800001C6AF0D601C00CF00CC022F078DD01C0EB
:100810000CF076EF0CF08E0E006E27C001F026C0B3
:1008200002F0036A015209E102C001F0026A080EF7
:10083000005E015202E1006A08D0D89001BE04D0E7
:10084000023601360006F9D7019E000C2A50D8B4B2
:1008500071D0006E2E50D8B46DD0002604E3810E06
:10086000002668E204D07F0E005E64E363E02BC0E4
:1008700032F02F50321A2B8E2F8E2D503102F4CFA2
:1008800034F02C503002F4CF03F0F3CF33F03102C8
:10089000F3503426F4503322000E03222D50300240
:1008A000F3503426F4503322000E026A032202224F
:1008B0002B503102F3503326F4500322000E022253
:1008C0002B503002F3500326F4500222000E016A2E
:1008D00001222D502F02F3503326F4500322000E34
:1008E000022201222C502F02F3500326F450022240
:1008F000000E01222B502F02F3500226F450012249
:10090000002A01BE05D03336033602360136000612
:10091000000E33AE0AD0032A02220122015005E163
:10092000025003E1035001E1002A32BE018E32AED3
:10093000019E04D0006A016A026A036A000C23C0A7
:100940002AF027502A1A2AAE05D0D894D89023BE70
:10095000D8802FD023C02AF026C02BF022502B5E47
:1009600006E02AAE26D0D850010AD86E22D027C081
:100970002BF023502B5E06E02AAE1BD0D850010A84
:10098000D86E17D028C02BF024502B5E06E02AAE7C
:1009900010D0D850010AD86E0CD029C02BF02550A9
:1009A0002B5E06E02AAE05D0D850010AD86E01D0E1
:1009B000D890000C800ED8B2271A2C6A2D6A23C05A
:1009C0002BF027502B1A2250D8B4DCD02A6E006EA0
:1009D0002650D8B4E0D02A5ED8B481D03DE327C0F9
:1009E00030F0308E28C02FF029C02EF02D6AD8901C
:1009F00030322F322E322D322A2EF8D72BAE03D0A2
:100A00002C80DDD02C902A902C88EA6A250EE96E85
:100A1000E9D02C982BBE0AD02AA013D030322F3226
:100A20002E322D32002AD8B4C5D00BD030BE0CD017
:100A3000D8902D362E362F3630360006D8B4BAD0A0
:100A4000F5D72C8C6BD02C9C23C02BF023AE02D07E
:100A5000308EA9D0309EA7D026C02AF026C000F044
:100A600022502A5E23C030F0308E24C02FF025C0E3
:100A70002EF02D6AD89030322F322E322D322A2E7F
:100A8000F8D72BAE03D02C829AD02C922A902C8AA5
:100A9000EA6A290EE96EA6D02C9A2BBE0AD02AA0AB
:100AA00013D030322F322E322D32002AD8B482D0D9
:100AB0000BD030BE0CD0D8902D362E362F36303697
:100AC0000006D8B477D0F5D72C8E28D02C9E27C01E
:100AD0002BF027AE02D0308E66D0309E64D027C077
:100AE00030F0308E28C02FF029C02EF02BAE04D06D
:100AF000309E2C8464D02C942D6A2A90EA6A250EAC
:100B0000E96E70D02BBE1CD023C02BF02AA006D0DB
:100B100030322F322E322D32002A4CE02DAE0BD047
:100B20002E2A09E12F2A07E1302A05E130322F323F
:100B30002E32002A3FE02CBC86D72CBEC7D71CD053
:100B4000800E301A30AE04D03AD027C02BF00AD035
:100B500023C02BF0305206E12F5204E12E5202E165
:100B6000006A21D030BE08D0D8902D362E362F36D0
:100B70003036002EF7D71ED02BAE02D0308E13D0D9
:100B8000309E11D026C000F027C030F028C02FF0D2
:100B900029C02EF008D022C000F023C030F024C0BD
:100BA0002FF025C02EF030C001F02FC002F02EC073
:100BB00003F034D0006A016A026A036A2FD02D6AFA
:100BC0002E1E2F1E301E2D1E2D2A05E12E2A03E17A
:100BD0002F2A01E1302A2CB015D72CB256D72CB4CD
:100BE0008AD7B3D7EF502E2605E32F2A03E1302A08
:100BF000D8B42A80ED52EF502F2603E3302AD8B420
:100C00002A80ED52EF50EFBE01D0800A3026D8B0D6
:100C10002A802CB8FED62CBA3FD774D75EEF06F0E8
:100C2000C284C2B4FED7C3CF1CF0C4CF1DF0DC0E0B
:100C30001C5C226E000E1D58236E276E22C026F00B
:100C4000EADD03C02DF002C02CF001C02BF000C083
:100C50002AF0340E316E800E306E370E2F6E740E09
:100C60002E6EF4DD03C021F002C020F001C01FF0A1
:100C700000C01EF021C025F020C024F01FC023F0CA
:100C80001EC022F0296A286A276A266A58DE04E311
:100C9000216A206A1F6A1E6AD892390E256EB40E28
:100CA000246E480E236E7A0E226E21C029F020C0D9
:100CB00028F01FC027F01EC026F07CD600C022F00E
:100CC00001C023F002C024F003C025F01DC027F0AE
:100CD0001CC026F0A0DD03C02DF002C02CF001C026
:100CE0002BF000C02AF025C031F024C030F023C022
:100CF0002FF022C02EF0AADD03C018F002C017F0BA
:100D000001C016F000C015F0000C1950135C276AE2
:100D1000266E81DD18C025F017C024F016C023F020
:100D200015C022F003C029F002C028F001C027F04E
:100D300000C026F004DE03E395928C8218D0276A67
:100D400013C026F068DD03C025F002C024F001C006
:100D500023F000C022F018C029F017C028F016C0F8
:100D600027F015C026F0EBDD02E395928C927AEF26
:100D70000CF0010E2B6E2AC02CF060EC02F0000C7F
:100D80002A50B6082A6E036A2BC02EF02B8ED890FC
:100D90002B322C322D3203320232013200322A2E13
:100DA000F6D72EAE0BD0001E011E021E031E002A17
:100DB000D8B4012AD8B4022AD8B4032A44EF07F0E1
:100DC000006A016A026A036A326A336A346A356AFF
:100DD000315030102F102E102CE0200E366ED8908F
:100DE0002A362B362C362D363236333634363536D7
:100DF0003150355C08E13050345C05E12F50335CF4
:100E000002E12E50325C0FE32E50325E2F50D8A0FC
:100E10002F3C335E3050D8A0303C345E3150D8A0E7
:100E2000313C355ED8800036013602360336362E28
:100E3000D6D7EA6A320EE96E000CE950226E2150D4
:100E4000246E19E020C02DF01FC02CF01EC02BF026
:100E50001DC02AF0316A306A200E2F6E820E2E6E6F
:100E6000F5DC03C020F002C01FF001C01EF000C07E
:100E70001DF0242EE7D720C02DF01FC02CF01EC07F
:100E80002BF01DC02AF07CD703C020F002C01FF059
:100E900001C01EF000C01DF020AE0DD02206228A37
:100EA0001D1E1E1E1F1E201E1D2AD8B41E2AD8B4A9
:100EB0001F2AD8B4202A3B0E296E9A0E286ECA0E1D
:100EC000276E266A0A0E246E2150D8B4222A20C02A
:100ED0002DF01FC02CF01EC02BF01DC02AF029C021
:100EE00031F028C030F027C02FF026C02EF068DF88
:100EF0000150EFCF1DF0ECCF1EF0ECCF1FF0ECCF88
:100F000020F000520FE12128245C0CE022500CE07C
:100F10000F0B245C01E037E222BE35D022BC04D0A6
:100F2000200E2DD0200E221622AA0CD0229A21505B
:100F3000D8A422060050226E2D0E2A6E1ADF2250EF
:100F4000006E226A2150245C0AE10050226E2E0EAF
:100F50002A6E0FDF2250006E200E2216000E300E79
:100F600022AA0DD0229A2150D8A422060050226E27
:100F70002D0E2A6EFEDE2250006E226A300E0026F2
:100F800000C02AF0F6DE29C02DF028C02CF027C0C2
:100F90002BF026C02AF0316A306A2F6A0A0E2E6EB4
:100FA0000FDF03C029F002C028F001C027F000C005
:100FB00026F0242E8CD7F9EF07F02B6A800E2C6ECA
:100FC00060EC02F01C6A1C5002EC00F01C2A006E5F
:100FD0002A6ECFDE0D0E1C5CF6E1890EE96E18C09C
:100FE00020F017C01FF016C01EF015C01DF0216ABA
:100FF00024D7120E1D6E1D5002EC00F01D2A006E4B
:101000002A6EB7DE170E1D5CF6E17CEF0CF0245063
:10101000016A235C03E223C000F00CD0006A080ED2
:10102000256E233600362450005CD8B0006E0136A1
:10103000252EF7D7000C200E1EA8300E1F6E1DC0E7
:1010400000F01DAE07D0001E002A00C01DF02D0EBE
:101050001F6E1E8E01501DC023F0640E246ED7DF5C
:1010600000C01DF0300E0124206E1DC023F00A0EBA
:10107000246ECDDF300E0024226E300E0124216E4E
:101080001FC000F01EA602D01EAE1E941EB80BD0CC
:101090001EAE22D01EB420D000C020F01EB21CD044
:1010A00000C021F019D0300E205C16E100C020F005
:1010B000200E1F6E1EA604D01E941E821EAE1E920F
:1010C000300E215C09E100C021F0200E206E1EA62A
:1010D000F7D71E921EAE1E901EA403D01FC02AF08A
:1010E00048DE1EA203D020C02AF043DE1EA003D09B
:1010F00021C02AF03EDE22C02AF03BDE000C2B6A23
:10110000C00E2C6E60EC02F01C6A1C5016EC00F055
:101110001C2A006E2A6E2DDE060E1C5CF6E10EC047
:101120001DF0010E1E6E87DF3A0E2A6E22DE0DC004
:101130001DF0010E1E6E7FDF3A0E2A6E1ADE0CC005
:101140001DF0010E1E6E77DF140E1D6E1D5016EC85
:1011500000F01D2A006E2A6E0CDE190E1D5CF6E1F1
:101160007DEF0CF02B6A800E2C6E60EC02F01C6A96
:101170001C50ECEC00F01C2A006E2A6EFADD160EF4
:101180001C5CF6E12B6AC00E2C6E60EC02F01C6A4F
:101190001C5000EC01F01C2A006E2A6EEADD0A0EDB
:1011A0001C5CF6E113C01DF0010E1E6E44DF0E0E36
:1011B0001D6E1D5000EC01F01D2A006E2A6ED9DD57
:1011C0001B0E1D5CF6E11B5001E020D00BA406D0E5
:1011D0000BB004D00BB202D0146A17D00BA20AD005
:1011E0000BB008D00BB406D0132A1350640801E2E8
:1011F000136A0BD00BA009D00BB407D00BB205D0EB
:101200001306135202E1640E136E00D092EF0CF03D
:10121000229E3F0E20169488050E006E002EFED7EB
:101220009486060E006E002EFED78B989498050EBD
:10123000006E002EFED78B969496D00E246E16EC80
:1012400001F0246A16EC01F022C023F092EC01F0C8
:1012500001C023F001C024F016EC01F021C023F0FE
:1012600092EC01F001C023F001C024F016EC01F073
:1012700020C023F092EC01F001C023F001C024F063
:1012800016EC01F01FC023F092EC01F001C023F036
:1012900001C024F016EC01F01CC023F092EC01F028
:1012A00001C023F001C024F016EC01F01DC023F0B2
:1012B00092EC01F001C023F001C024F016EC01F023
:1012C0001EC023F092EC01F001C023F001C024F015
:1012D00016EC01F0800E246E16EC01F094980000DC
:1012E000948682A6FED7050E006E002EFED700D093
:1012F00000009488050E006E002EFED7A1EF0BF0C3
:101300002B6A800E2C6E60EC02F01C6A1C502BECD9
:1013100000F01C2A006E2A6E2CDD120E1C5CF6E119
:101320002B6AC00E2C6E60EC02F0480E2A6E21DD96
:101330000EC01DF0010E1E6E7EDE3A0E2A6E19DD05
:101340000DC01DF0010E1E6E76DE3A0E2A6E11DD06
:101350000CC01DF0010E1E6E6EDE200E2A6E09DD21
:10136000440E2A6E06DD0FC01DF0010E1E6E63DEF8
:101370002F0E2A6EFEDC10C01DF0010E1E6E5BDE0D
:101380002F0E2A6EF6DC11C01DF0010E1E6E53DE0C
:101390001F0E1C6E1C503DEC00F01C2A006E2A6EC5
:1013A000E8DC260E1C5CF6E11A50F80FD8B0D5D157
:1013B000080FAFEF0BF00BA406D00BB004D00BB2AC
:1013C00002D0010E1A6EC9D12B6AC00E2C6E60ECD1
:1013D00002F01C6A1C5059EC00F01C2A006E2A6EA8
:1013E000C8DC060E1C5CF6E10EC01DF0010E1E6E80
:1013F00022DE0A0E1D6E1D5059EC00F01D2A006EF3
:101400002A6EB7DC180E1D5CF6E10BA407D00BB0FA
:1014100005D00BB203D0020E1A6E18D00BA20AD060
:101420000BB008D00BB406D00E2A0E50170801E2FC
:101430000E6A0CD00BA00AD00BB408D00BB206D0A9
:101440000E060E50FF0802E1170E0E6E86D12B6AB3
:10145000C00E2C6E60EC02F01C6A1C506EEC00F0AA
:101460001C2A006E2A6E85DC080E1C5CF6E10DC09D
:101470001DF0010E1E6EDFDD0C0E1D6E1D506EEC9C
:1014800000F01D2A006E2A6E74DC180E1D5CF6E159
:101490000BA407D00BB005D00BB203D0030E1A6E0D
:1014A00018D00BA20AD00BB008D00BB406D00D2A6E
:1014B0000D503B0801E20D6A0CD00BA00AD00BB412
:1014C00008D00BB206D00D060D50FF0802E13B0E0E
:1014D0000D6E43D12B6AC00E2C6E60EC02F01C6ABC
:1014E0001C5083EC00F01C2A006E2A6E42DC090EB0
:1014F0001C5CF6E10CC01DF0010E1E6E9CDD0D0E95
:101500001D6E1D5083EC00F01D2A006E2A6E31DC2A
:101510001C0E1D5CF6E10BA407D00BB005D00BB27E
:1015200003D0040E1A6E18D00BA20AD00BB008D04C
:101530000BB406D00C2A0C503B0801E20C6A0CD00C
:101540000BA00AD00BB408D00BB206D00C060C507E
:10155000FF0802E13B0E0C6E00D12B6AC00E2C6E10
:1015600060EC02F01C6A1C509AEC00F01C2A006E21
:101570002A6EB9EC06F0040E1C5CF5E10FC01DF0FC
:10158000010E1E6E58DD080E1D6E1D509AEC00F007
:101590001D2A006E2A6EB9EC06F0180E1D5CF5E1EE
:1015A0000BA407D00BB005D00BB203D0050E1A6EFA
:1015B00018D00BA20BD00BB009D00BB407D00F2A58
:1015C0000F501F0802E2010E0F6E0BD00BA009D0C6
:1015D0000BB407D00BB205D00F060F5202E11F0E5D
:1015E0000F6EBBD02B6AC00E2C6E60EC02F01C6A32
:1015F0001C50AFEC00F01C2A006E2A6EB9EC06F00D
:10160000040E1C5CF5E110C01DF0010E1E6E13DD12
:10161000080E1D6E1D50AFEC00F01D2A006E2A6EE4
:10162000B9EC06F0180E1D5CF5E10BA407D00BB069
:1016300005D00BB203D0060E1A6E18D00BA20BD039
:101640000BB009D00BB407D0102A10500C0802E2DE
:10165000010E106E0BD00BA009D00BB407D00BB24B
:1016600005D01006105202E10C0E106E76D02B6AD7
:10167000C00E2C6E60EC02F01C6A1C50C4EC00F032
:101680001C2A006E2A6EB9EC06F0040E1C5CF5E113
:1016900011C01DF0010E1E6ECEDC080E1D6E1D5019
:1016A000C4EC00F01D2A006E2A6EB9EC06F0180E8C
:1016B0001D5CF5E10BA407D00BB005D00BB203D035
:1016C000070E1A6E17D00BA20AD00BB008D00BB4BD
:1016D00006D0112A11501E0801E2116A0BD00BA08E
:1016E00009D00BB407D00BB205D01106115202E19C
:1016F0001E0E116E32D02B6AC00E2C6E60EC02F002
:101700001C6A1C50D9EC00F01C2A006E2A6EB9EC41
:1017100006F0140E1C5CF5E10BA216D00BB014D031
:101720000BB412D00FC01CF010C01DF011C01EF081
:1017300012C01FF00EC020F00DC021F00CC022F02E
:1017400067D5146A1A6A08D00BA006D00BB404D06F
:101750000BB202D01A6A146A00D092EF0CF0E8249F
:10176000F76AF736790FF66E170EF7220A00F55072
:10177000FA6E0800F550F96EB613C8134E14D4145F
:101780005A15E4156E16F616958083B008D00950E8
:10179000020804E10A5202E10B840B8A05D00BBA5D
:1017A00003D00A6A020E096E0BAA12D00A5203E194
:1017B0000950010805E20950D8B40A06090602D00A
:1017C0000A6A096A095204E10A5202E10B940B9A6F
:1017D000958683B608D00750020804E1085202E15A
:1017E0000B820B8805D00BB803D0086A020E076E77
:1017F0000BA812D0085203E10750010805E2075078
:10180000D8B40806070602D0086A076A075204E13E
:10181000085202E10B920B98958483B408D00550CE
:10182000020804E1065202E10B800B8605D00BB6DC
:1018300003D0066A020E056E0BA612D0065203E113
:101840000550010805E20550D8B40606050602D089
:10185000066A056A055204E1065202E10B900B96F6
:1018600093EF0CF0F86AD09EEA6AE96AC180C182FF
:10187000C184C196020E056E066A076E086A096E7B
:101880000A6A0B900B920B940B960B980B9A0B8C8D
:101890000B8E1E0E136E146A030E196E1A6A1B6AE3
:1018A000A4EF01F0C19CC28CC28EC18EC280000E1A
:1018B000016EC250C70B0110C26E100E006E002EDA
:1018C000FED70000640E1C6E40EC02F09EEF02F0AA
:1018D000145005E0010A22E0030A23E023D02B6A1A
:1018E000010E2C6E60EC02F03FEF03F010EC06F0FE
:1018F00085EF06F0DDEF07F002D40BA406D00BB0A5
:1019000004D00BA202D0020E146E0BA406D00BA0C2
:1019100004D00BB202D0010E146E04D010EC06F00D
:1019200021D4EED431D7640E1C6E40EC02F0D0D737
:021930000300B2
:020000040030CA
:0E00000000220E0E000181000FC00FE00F4025
:00000001FF
;PIC18F452
