:020000040000FA
:100000008CEF05F0F76A140FF66E000EF722090068
:10001000F550120054656D70657261747572613AC5
:1000200020252E316C66432020200000F76A3C0F0B
:10003000F66E000EF7220900F5501200486F72614B
:100040003A20253032643A253032643A2530326421
:100050000000080E016E050E006E002EFED78B9676
:100060009496060E006E002EFED719368B98D8B0E7
:100070009488D8A09498948682A6FED7012EEBD7B8
:10008000050E006E002EFED78B9694960000948885
:10009000060E006E002EFED7060E006E002EFED756
:1000A000948682A6FED7016A060E006E002EFED749
:1000B00082B801808B9694968B989498000C080EC9
:1000C000156E00C016F09488060E006E002EFED746
:1000D000948682A6FED782B8D88082A8D8900136AE
:1000E000050E006E002EFED794968B96152EEBD73C
:1000F0009488060E006E002EFED78B981650D8A45A
:1001000094980000948682A6FED7050E006E002EFD
:10011000FED78B969496060E006E002EFED78B9817
:100120009498000C16C017F0D8901732780E171656
:100130001730006E00323F0E001600501724186E64
:1001400016500F0B1824016E000C18C019F01A6A13
:100150001950090805E20A0E195E100E1A2603D07E
:1001600019501A2601D0F4D71AC001F0000C116AF8
:100170009488050E006E002EFED79486060E006E43
:10018000002EFED78B989498050E006E002EFED799
:100190008B969496D00E196E5CDF196A5ADF94889C
:1001A000050E006E002EFED79486060E006E002E01
:1001B000FED782A6FED78B989498050E006E002E6F
:1001C000FED78B969496D10E196E43DF006A77DFC7
:1001D00001C012F001C016F0A5DF01C011F0949823
:1001E0000000948682A6FED7050E006E002EFED774
:1001F00000D000009488050E006E002EFED7119EE0
:10020000040E006E002EFED700D09488050E006EFE
:10021000002EFED79486060E006E002EFED78B9819
:100220009498050E006E002EFED78B969496D00EF5
:10023000196E0FDF196A0DDF11C018F086DF01C0DB
:1002400012F001C019F005DF9488050E006E002E33
:10025000FED79486060E006E002EFED782A6FED72D
:100260008B989498050E006E002EFED78B96949670
:10027000D00E196EEEDE070E196EEBDE800E196ED3
:10028000E8DE94980000948682A6FED7050E006EE4
:10029000002EFED700D000009488050E006E002EC0
:1002A000FED797EF05F0179E3F0E15169488050EA2
:1002B000006E002EFED79486060E006E002EFED72E
:1002C0008B989498050E006E002EFED78B96949610
:1002D000D00E196EBEDE196ABCDE17C018F035DF0D
:1002E00001C018F001C019F0B4DE16C018F02DDFFF
:1002F00001C018F001C019F0ACDE15C018F025DF00
:1003000001C018F001C019F0A4DE14C018F01DDF00
:1003100001C018F001C019F09CDE11C018F015DF03
:1003200001C018F001C019F094DE12C018F00DDF02
:1003300001C018F001C019F08CDE13C018F005DF01
:1003400001C018F001C019F084DE800E196E81DE44
:1003500094980000948682A6FED7050E006E002EAB
:10036000FED700D000009488050E006E002EFED748
:10037000A7EF05F0EA6A120EE96EEF500DE0060EE7
:10038000016E006A002EFED7012EFBD77B0E006E99
:10039000002EFED7EF2EF3D7000C030E115E09E3FB
:1003A000EA6A110EE96EEF5004E001D000D0EF2EA2
:1003B000FDD7000C202C20D02150F00B0209226E1A
:1003C00022C081FF8180080E006E002EFED7819032
:1003D0002138006EF00E001600500209226E22C075
:1003E00081FF8180080E006E002EFED78190530E93
:1003F000006E002EFED71BD02150F00B226E22C0C3
:1004000081FF8180080E006E002EFED7819021387A
:10041000226EF00E221622C081FF8180080E006E2F
:10042000002EFED78190530E006E002EFED7000CDA
:10043000936A320E126E9EDF300E816E8180080E3E
:10044000006E002EFED78190190E126E93DF300ED3
:10045000816E8180080E006E002EFED78190190EED
:10046000126E88DF300E816E8180080E006E002EC5
:10047000FED78190190E126E7DDF300E816E818065
:10048000080E006E002EFED78190C80E116E85DF1B
:10049000200E816E8180080E006E002EFED78190A6
:1004A000C80E116E7ADF206A280E216E83DF206A63
:1004B000080E216E7FDF206A010E216E7BDF050EA4
:1004C000126E58DF206A060E216E74DF206A0C0E51
:1004D000216E70DFC0EF05F08E0E006E14C001F0CB
:1004E00013C002F0036A015209E102C001F0026A7E
:1004F000080E005E015202E1006A08D0D89001BEE9
:1005000004D0023601360006F9D7019E94EF02F0BE
:10051000C284C2B4FED7C3CF11F0C4CF12F012C050
:1005200014F011C013F0D8D7C1EF05F0010E206E02
:100530001FC021F03FDF000C1F50D8B471D0006EF7
:100540002350D8B46DD0002604E3810E002668E263
:1005500004D07F0E005E64E363E020C027F02450E7
:10056000271A208E248E22502602F4CF29F0215003
:100570002502F4CF03F0F3CF28F02602F35029260A
:10058000F4502822000E032222502502F35029267F
:10059000F4502822000E026A032202222050260272
:1005A000F3502826F4500322000E02222050250288
:1005B000F3500326F4500222000E016A0122225059
:1005C0002402F3502826F4500322000E02220122B6
:1005D00021502402F3500326F4500222000E01227F
:1005E00020502402F3500226F4500122002A01BEBA
:1005F00005D028360336023601360006000E28AE36
:100600000AD0032A02220122015005E1025003E12F
:10061000035001E1002A27BE018E27AE019E04D0BF
:10062000006A016A026A036A87EF03F01F50B60886
:100630001F6E036A20C023F0208ED8902032213212
:10064000223203320232013200321F2EF6D723AE9D
:100650000BD0001E011E021E031E002AD8B4012A60
:10066000D8B4022AD8B4032A9AEF03F0006A016AC8
:10067000026A036A276A286A296A2A6A26502510AC
:10068000241023102CE0200E2B6ED8901F3620361D
:10069000213622362736283629362A3626502A5C35
:1006A00008E12550295C05E12450285C02E1235033
:1006B000275C0FE32350275E2450D8A0243C285EFB
:1006C0002550D8A0253C295E2650D8A0263C2A5E7D
:1006D000D88000360136023603362B2ED6D7EA6A8A
:1006E000270EE96E000CE950176E1650196E19E0CE
:1006F00015C022F014C021F013C020F012C01FF06A
:10070000266A256A200E246E820E236E15D703C03A
:1007100015F002C014F001C013F000C012F0192E41
:10072000E7D715C022F014C021F013C020F012C08A
:100730001FF07CD703C015F002C014F001C013F005
:1007400000C012F015AE0DD01706178A121E131E28
:10075000141E151E122AD8B4132AD8B4142AD8B4D9
:10076000152A3B0E1E6E9A0E1D6ECA0E1C6E1B6A5B
:100770000A0E196E1650D8B4172A15C022F014C0EC
:1007800021F013C020F012C01FF01EC026F01DC0C3
:1007900025F01CC024F01BC023F068DF0150EFCF10
:1007A00012F0ECCF13F0ECCF14F0ECCF15F00052B8
:1007B0000FE11628195C0CE017500CE00F0B195CC8
:1007C00001E037E217BE35D017BC04D0200E2DD083
:1007D000200E171617AA0CD0179A1650D8A4170671
:1007E0000050176E2D0E1F6EA1DE1750006E176A97
:1007F0001650195C0AE10050176E2E0E1F6E96DE21
:100800001750006E200E1716000E300E17AA0DD0CE
:10081000179A1650D8A417060050176E2D0E1F6E8B
:1008200085DE1750006E176A300E002600C01FF0DC
:100830007DDE1EC022F01DC021F01CC020F01BC0B8
:100840001FF0266A256A246A0A0E236E0FDF03C092
:100850001EF002C01DF001C01CF000C01BF0192EDC
:100860008CD7E5EF05F0F29CF29EF2BEFDD794889E
:10087000050E006E002EFED79486060E006E002E2A
:10088000FED78B989498050E006E002EFED78B969F
:100890009496D00E196E29EC00F011C019F029ECD5
:1008A00000F09488050E006E002EFED79486060E8A
:1008B000006E002EFED782A6FED78B989498050E68
:1008C000006E002EFED78B969496D10E196E29ECF1
:1008D00000F0006A5FEC00F001C012F09498000094
:1008E000948682A6FED7050E006E002EFED700D09D
:1008F00000009488050E006E002EFED7C00EF21286
:1009000012C001F062EF05F01950016A185C03E2B1
:1009100018C000F00CD0006A080E1A6E18360036A7
:100920001950005CD8B0006E01361A2EF7D7000CB3
:10093000200E13A8300E146E12C000F012AE07D0B5
:10094000001E002A00C012F02D0E146E138E0150EE
:1009500012C018F0640E196ED7DF00C012F0300E0E
:100960000124156E12C018F00A0E196ECDDF300E7C
:100970000024176E300E0124166E14C000F013A66A
:1009800002D013AE139413B80BD013AE22D013B40D
:1009900020D000C015F013B21CD000C016F019D042
:1009A000300E155C16E100C015F0200E146E13A673
:1009B00004D01394138213AE1392300E165C09E127
:1009C00000C016F0200E156E13A6F7D7139213AEC3
:1009D000139013A403D014C01FF0A8DD13A203D0FA
:1009E00015C01FF0A3DD13A003D016C01FF09EDDBD
:1009F00017C01FF09BDD000C9488050E006E002EC2
:100A0000FED79486060E006E002EFED78B98949823
:100A1000050E006E002EFED78B969496D00E196EA2
:100A200029EC00F0196A29EC00F09488050E006E9C
:100A3000002EFED79486060E006E002EFED782A6EC
:100A4000FED78B989498050E006E002EFED78B96DD
:100A50009496D10E196E29EC00F0010E006E5FEC39
:100A600000F001507F0B126E166E92EC00F001C088
:100A700005F0010E006E5FEC00F001507F0B126E6E
:100A8000166E92EC00F001C006F0006A5FEC00F018
:100A900001503F0B126E166E92EC00F001C007F091
:100AA00094980000948682A6FED7050E006E002E54
:100AB000FED700D000009488050E006E002EFED7F1
:100AC000116AD1D601C005F005C016F092EC00F015
:100AD00001C005F0116A115016EC00F0112A006EE9
:100AE0001F6E24DD060E115CF6E107C012F0010E48
:100AF000136E1EDF3A0E1F6E19DD06C012F0010ED6
:100B0000136E16DF3A0E1F6E11DD05C012F0010ED6
:100B1000136E0EDFF7EF05F0F86AD09EEA6AE96A15
:100B2000C180C182C184C1960C6AB7EF00F0120E79
:100B3000116E0B0E126E0C0E136E020E146E160E4C
:100B4000156E050E166E370E176E53EF01F0C19C31
:100B5000C28CC28EC18EC280000E016EC250C70B05
:100B60000110C26E100E006E002EFED70000020EA5
:100B7000116EFA0E126EBAEC01F0112EFAD758D49B
:100B8000C7D403C010F002C00FF001C00EF000C0C7
:100B90000DF0206A800E216E0DDC116A115002ECFE
:100BA00000F0112A006E1F6EC1DC0D0E115CF6E123
:100BB000890EE96E10C015F00FC014F00EC013F0CE
:100BC0000DC012F0010E166E8ED5120E126E12505E
:100BD00002EC00F0122A006E1F6EA8DC160E125CEA
:100BE000F6E1206AC00E216EDAEC01F005D792988A
:100BF0008978020E116EFA0E126EBAEC01F0112E07
:060C0000FAD7BED7030085
:020000040030CA
:0E00000000220E0E000181000FC00FE00F4025
:00000001FF
;PIC18F452
