:020000040000FA
:10000000C6EF00F0F76A140FF66E000EF722090033
:10001000F5501200746573746500EA6A070EE96EA4
:10002000EF500DE0060E016E006A002EFED7012E85
:10003000FBD77B0E006E002EFED7EF2EF3D7000C01
:10004000030E065E09E3EA6A060EE96EEF5004E06D
:1000500001D000D0EF2EFDD7000C082C20D0095085
:10006000F00B02090A6E0AC081FF8180080E006E43
:10007000002EFED781900938006EF00E0016005059
:1000800002090A6E0AC081FF8180080E006E002EF0
:10009000FED78190530E006E002EFED71BD0095064
:1000A000F00B0A6E0AC081FF8180080E006E002EE0
:1000B000FED7819009380A6EF00E0A160AC081FF39
:1000C0008180080E006E002EFED78190530E006EC8
:1000D000002EFED7000C936A320E076E9EDF300EA4
:1000E000816E8180080E006E002EFED78190190E61
:1000F000076E93DF300E816E8180080E006E002E39
:10010000FED78190190E076E88DF300E816E8180D8
:10011000080E006E002EFED78190190E076E7DDF4F
:10012000300E816E8180080E006E002EFED7819009
:10013000C80E066E85DF200E816E8180080E006E6F
:10014000002EFED78190C80E066E7ADF086A280E50
:10015000096E83DF086A080E096E7FDF086A010EE8
:10016000096E7BDF050E076E58DF086A060E096E02
:1001700074DF086A0C0E096E70DFD6EF00F0010E16
:10018000086E07C009F069DFDEEF00F0F86AD09E64
:10019000EA6AE96AC180C182C184C196020E066E14
:1001A000FA0E076E3ADF062EFBD795D7066A065081
:1001B00029DF000904E0062A076EE1D7F8D79598F1
:1001C0008C78020E066EFA0E076E27DF062EFBD71E
:0401D000EDD7030064
:020000040030CA
:0E00000000220E0E000181000FC00FE00F4025
:00000001FF
;PIC18F452
