:020000040000FA
:1000000092EF02F0F76A140FF66E000EF722090065
:10001000F550120054533A256420542D3A2564209B
:10002000542B3A25642020200000F76A3A0FF66E20
:10003000000EF7220900F550120074533A256C6443
:1000400020742D3A256C6420742B3A256C64202092
:100050002000F76A620FF66E000EF7220900F550D5
:1000600012002B202D2020200000F76A7A0FF66E58
:10007000000EF7220900F5501200736574202B2042
:1000800020200000F76A940FF66E000EF722090098
:10009000F5501200736574202D2020200000F76AAF
:1000A000AE0FF66E000EF7220900F55012006E61D9
:1000B00064612020202020200000F76ACA0FF66E1D
:1000C000000EF7220900F55012002D20202000001C
:1000D000F76AE00FF66E000EF7220900F5501200E5
:1000E0002B2020200000F76AF60FF66E000EF72294
:1000F0000900F55012007365742020200000EA6AA0
:100100000C0EE96EEF500DE0060E016E006A002E37
:10011000FED7012EFBD77B0E006E002EFED7EF2EF2
:10012000F3D7000C030E0C5E09E3EA6A0C0EE96ECD
:10013000EF5004E001D000D0EF2EFDD7000C182CBA
:1001400020D01950F00B02091A6E1AC081FF81806D
:10015000080E006E002EFED781901938006EF00E4A
:100160000016005002091A6E1AC081FF8180080E25
:10017000006E002EFED78190530E006E002EFED72B
:100180001BD01950F00B1A6E1AC081FF8180080E27
:10019000006E002EFED7819019381A6EF00E1A16D6
:1001A0001AC081FF8180080E006E002EFED781905C
:1001B000530E006E002EFED7000C936A320E0C6EAA
:1001C0009EDF300E816E8180080E006E002EFED7FD
:1001D0008190190E0C6E93DF300E816E8180080EB7
:1001E000006E002EFED78190190E0C6E88DF300E47
:1001F000816E8180080E006E002EFED78190190E50
:100200000C6E7DDF300E816E8180080E006E002E38
:10021000FED78190C80E0C6E85DF200E816E818026
:10022000080E006E002EFED78190C80E0C6E7ADF8D
:10023000186A280E196E83DF186A080E196E7FDFA0
:10024000186A010E196E7BDF050E0C6E58DF186AF6
:10025000060E196E74DF186A0C0E196E70DFA8EFA7
:1002600002F0958083B008D00950640804E10A5276
:1002700002E10B840B8A05D00BBA03D00A6A640E24
:10028000096E0BAA12D00A5203E10950010805E2D7
:100290000950D8B40A06090602D00A6A096A095246
:1002A00004E10A5202E10B940B9A958683B608D0BA
:1002B0000750640804E1085202E10B820B8805D064
:1002C0000BB803D0086A640E076E0BA812D0085250
:1002D00003E10750010805E20750D8B408060706F5
:1002E00002D0086A076A075204E1085202E10B9241
:1002F0000B98958483B408D00550640804E1065235
:1003000002E10B800B8605D00BB603D0066A640EA3
:10031000056E0BA612D0065203E10550010805E256
:100320000550D8B40606050602D0066A056A0552CD
:1003300004E1065202E10B900B96A9EF02F018506F
:10034000016A175C03E217C000F00CD0006A080EC7
:10035000196E173600361850005CD8B0006E0136A2
:10036000192EF7D7000C010E186E17C019F0E7DE32
:10037000000C200E12A8300E136E11C000F011AE4A
:1003800007D0001E002A00C011F02D0E136E128E31
:10039000015011C017F0640E186ED1DF00C011F0CB
:1003A000300E0124146E11C017F00A0E186EC7DF4C
:1003B000300E0024166E300E0124156E13C000F0AE
:1003C00012A602D012AE129412B80BD012AE22D0E6
:1003D00012B420D000C014F012B21CD000C015F02E
:1003E00019D0300E145C16E100C014F0200E136E0C
:1003F00012A604D01294128212AE1292300E155C24
:1004000009E100C015F0200E146E12A6F7D7129263
:1004100012AE129012A403D013C017F0A4DF12A2E0
:1004200003D014C017F09FDF12A003D015C017F03F
:100430009ADF16C017F097DF000CEACF16F0E9CF6D
:1004400015F00FAE08D0158E15A8152A0E1E0F1E1A
:100450000E2AD8B40F2A0F38F009116E1126E20FB8
:10046000126E320F146E0F500F0B12261226142626
:10047000E90F136E132613260E380F0B13261426BE
:1004800013361436141E14360E500F0B1426113664
:10049000070E106E0A0E13061426FDE3120613262D
:1004A000FDE311061226FDE310061126FDE3EA6ABC
:1004B000100EE96E070E1514159CE906151407E1D8
:1004C00015B8E92A15B803D0200E006E1CD0E92615
:1004D000140EE95CD8B4158CEF50006E08E115BC21
:1004E00006D015B81BD015B602D0200E0BD015AE15
:1004F00006D02D0E006EED50159C159E04D015866D
:100500001598300E0026EACF0FF0E9CF0EF000C0AC
:1005100017F029DF0FC0EAFF0EC0E9FFEE5015AC5F
:10052000D7D7000CF86AD09EEA6AE96AC180C18216
:10053000C184C196640E056E066A076E086A096E6C
:100540000A6A0B900B920B940B960B980B9A35D66C
:1005500088D6186A800E196EF2DD000E0BB8010EF7
:10056000116E1F0E126E05DF186AC00E196EE7DDE0
:10057000000E0BB4010E0C6E000E0BB0010E0D6ED2
:10058000000E0BB2010E0E6E540E176EECDE530E03
:10059000176EE9DE3A0E176EE6DE0CC011F01F0E84
:1005A000126EE7DE050E0F6E0F502CDD0F2A006E67
:1005B000176ED9DE090E0F5CF7E10DC011F01F0EAA
:1005C000126ED7DE0B0E106E10501CDD102A006E5E
:1005D000176EC9DE0F0E105CF7E10EC011F01F0E92
:1005E000126EC7DE200E176EBEDE200E176EBBDE4B
:1005F000200E176EB8DE186A940E196EA0DD740E08
:10060000176EB1DE530E176EAEDE3A0E176EABDE0E
:10061000100EE96E0AC00FF009C00EF00EDF060ED4
:100620000C6E0C5002DD0C2A006E176E9CDE0A0E5A
:100630000C5CF7E1100EE96E06C00FF005C00EF07D
:10064000FCDE0D0E0D6E0D50F0DC0D2A006E176EE7
:100650008ADE110E0D5CF7E1100EE96E08C00FF096
:1006600007C00EF0EADE200E176E7DDE200E176E3C
:100670007ADE200E176E77DE0BA010D00BA20ED004
:10068000186AD40E196E5BDD0C6A0C50E2DC0C2A81
:10069000006E176E68DE060E0C5CF7E10BA410D03E
:1006A0000BA20ED0186AD40E196E49DD0C6A0C50DC
:1006B000DCDC0C2A006E176E56DE080E0C5CF7E1CF
:1006C0000BA010D00BA40ED0186AD40E196E37DD13
:1006D0000C6A0C50D7DC0C2A006E176E44DE080E34
:1006E0000C5CF7E10BB012D00BB410D00BB20ED0F3
:1006F000186AD40E196E23DD0C6A0C50D0DC0C2A5B
:10070000006E176E30DE0A0E0C5CF7E10BA012D003
:100710000BB410D00BB20ED0186AD40E196E0FDDC8
:100720000C6A0C50CADC0C2A006E176E1CDE040E1C
:100730000C5CF7E10BA212D00BB410D00BB00ED0B2
:10074000186AD40E196EFBDC0C6A0C50C1DC0C2A42
:10075000006E176E08DE040E0C5CF7E10BA412D0DD
:100760000BB010D00BB20ED0186AD40E196EE7DCA5
:100770000C6A0C50B8DC0C2A006E176EF4DD060E05
:0E0780000C5CF7E1010E0C6EBADCE2D6030051
:020000040030CA
:0E00000000220E0E000181000FC00FE00F4025
:00000001FF
;PIC18F452
